{
  "contractName": "ERC721Namable",
  "abi": [
    {
      "inputs": [
        {
          "internalType": "string",
          "name": "_name",
          "type": "string"
        },
        {
          "internalType": "string",
          "name": "_symbol",
          "type": "string"
        }
      ],
      "stateMutability": "nonpayable",
      "type": "constructor"
    },
    {
      "anonymous": false,
      "inputs": [
        {
          "indexed": true,
          "internalType": "address",
          "name": "owner",
          "type": "address"
        },
        {
          "indexed": true,
          "internalType": "address",
          "name": "approved",
          "type": "address"
        },
        {
          "indexed": true,
          "internalType": "uint256",
          "name": "tokenId",
          "type": "uint256"
        }
      ],
      "name": "Approval",
      "type": "event"
    },
    {
      "anonymous": false,
      "inputs": [
        {
          "indexed": true,
          "internalType": "address",
          "name": "owner",
          "type": "address"
        },
        {
          "indexed": true,
          "internalType": "address",
          "name": "operator",
          "type": "address"
        },
        {
          "indexed": false,
          "internalType": "bool",
          "name": "approved",
          "type": "bool"
        }
      ],
      "name": "ApprovalForAll",
      "type": "event"
    },
    {
      "anonymous": false,
      "inputs": [
        {
          "indexed": true,
          "internalType": "uint256",
          "name": "tokenId",
          "type": "uint256"
        },
        {
          "indexed": false,
          "internalType": "string",
          "name": "bio",
          "type": "string"
        }
      ],
      "name": "BioChange",
      "type": "event"
    },
    {
      "anonymous": false,
      "inputs": [
        {
          "indexed": true,
          "internalType": "uint256",
          "name": "tokenId",
          "type": "uint256"
        },
        {
          "indexed": false,
          "internalType": "string",
          "name": "newName",
          "type": "string"
        }
      ],
      "name": "NameChange",
      "type": "event"
    },
    {
      "anonymous": false,
      "inputs": [
        {
          "indexed": true,
          "internalType": "address",
          "name": "from",
          "type": "address"
        },
        {
          "indexed": true,
          "internalType": "address",
          "name": "to",
          "type": "address"
        },
        {
          "indexed": true,
          "internalType": "uint256",
          "name": "tokenId",
          "type": "uint256"
        }
      ],
      "name": "Transfer",
      "type": "event"
    },
    {
      "inputs": [
        {
          "internalType": "address",
          "name": "to",
          "type": "address"
        },
        {
          "internalType": "uint256",
          "name": "tokenId",
          "type": "uint256"
        }
      ],
      "name": "approve",
      "outputs": [],
      "stateMutability": "nonpayable",
      "type": "function"
    },
    {
      "inputs": [
        {
          "internalType": "address",
          "name": "owner",
          "type": "address"
        }
      ],
      "name": "balanceOf",
      "outputs": [
        {
          "internalType": "uint256",
          "name": "",
          "type": "uint256"
        }
      ],
      "stateMutability": "view",
      "type": "function",
      "constant": true
    },
    {
      "inputs": [],
      "name": "baseURI",
      "outputs": [
        {
          "internalType": "string",
          "name": "",
          "type": "string"
        }
      ],
      "stateMutability": "view",
      "type": "function",
      "constant": true
    },
    {
      "inputs": [
        {
          "internalType": "uint256",
          "name": "",
          "type": "uint256"
        }
      ],
      "name": "bio",
      "outputs": [
        {
          "internalType": "string",
          "name": "",
          "type": "string"
        }
      ],
      "stateMutability": "view",
      "type": "function",
      "constant": true
    },
    {
      "inputs": [
        {
          "internalType": "uint256",
          "name": "tokenId",
          "type": "uint256"
        }
      ],
      "name": "getApproved",
      "outputs": [
        {
          "internalType": "address",
          "name": "",
          "type": "address"
        }
      ],
      "stateMutability": "view",
      "type": "function",
      "constant": true
    },
    {
      "inputs": [
        {
          "internalType": "address",
          "name": "owner",
          "type": "address"
        },
        {
          "internalType": "address",
          "name": "operator",
          "type": "address"
        }
      ],
      "name": "isApprovedForAll",
      "outputs": [
        {
          "internalType": "bool",
          "name": "",
          "type": "bool"
        }
      ],
      "stateMutability": "view",
      "type": "function",
      "constant": true
    },
    {
      "inputs": [],
      "name": "name",
      "outputs": [
        {
          "internalType": "string",
          "name": "",
          "type": "string"
        }
      ],
      "stateMutability": "view",
      "type": "function",
      "constant": true
    },
    {
      "inputs": [
        {
          "internalType": "uint256",
          "name": "tokenId",
          "type": "uint256"
        }
      ],
      "name": "ownerOf",
      "outputs": [
        {
          "internalType": "address",
          "name": "",
          "type": "address"
        }
      ],
      "stateMutability": "view",
      "type": "function",
      "constant": true
    },
    {
      "inputs": [
        {
          "internalType": "address",
          "name": "from",
          "type": "address"
        },
        {
          "internalType": "address",
          "name": "to",
          "type": "address"
        },
        {
          "internalType": "uint256",
          "name": "tokenId",
          "type": "uint256"
        }
      ],
      "name": "safeTransferFrom",
      "outputs": [],
      "stateMutability": "nonpayable",
      "type": "function"
    },
    {
      "inputs": [
        {
          "internalType": "address",
          "name": "from",
          "type": "address"
        },
        {
          "internalType": "address",
          "name": "to",
          "type": "address"
        },
        {
          "internalType": "uint256",
          "name": "tokenId",
          "type": "uint256"
        },
        {
          "internalType": "bytes",
          "name": "_data",
          "type": "bytes"
        }
      ],
      "name": "safeTransferFrom",
      "outputs": [],
      "stateMutability": "nonpayable",
      "type": "function"
    },
    {
      "inputs": [
        {
          "internalType": "address",
          "name": "operator",
          "type": "address"
        },
        {
          "internalType": "bool",
          "name": "approved",
          "type": "bool"
        }
      ],
      "name": "setApprovalForAll",
      "outputs": [],
      "stateMutability": "nonpayable",
      "type": "function"
    },
    {
      "inputs": [
        {
          "internalType": "bytes4",
          "name": "interfaceId",
          "type": "bytes4"
        }
      ],
      "name": "supportsInterface",
      "outputs": [
        {
          "internalType": "bool",
          "name": "",
          "type": "bool"
        }
      ],
      "stateMutability": "view",
      "type": "function",
      "constant": true
    },
    {
      "inputs": [],
      "name": "symbol",
      "outputs": [
        {
          "internalType": "string",
          "name": "",
          "type": "string"
        }
      ],
      "stateMutability": "view",
      "type": "function",
      "constant": true
    },
    {
      "inputs": [
        {
          "internalType": "uint256",
          "name": "index",
          "type": "uint256"
        }
      ],
      "name": "tokenByIndex",
      "outputs": [
        {
          "internalType": "uint256",
          "name": "",
          "type": "uint256"
        }
      ],
      "stateMutability": "view",
      "type": "function",
      "constant": true
    },
    {
      "inputs": [
        {
          "internalType": "address",
          "name": "owner",
          "type": "address"
        },
        {
          "internalType": "uint256",
          "name": "index",
          "type": "uint256"
        }
      ],
      "name": "tokenOfOwnerByIndex",
      "outputs": [
        {
          "internalType": "uint256",
          "name": "",
          "type": "uint256"
        }
      ],
      "stateMutability": "view",
      "type": "function",
      "constant": true
    },
    {
      "inputs": [
        {
          "internalType": "uint256",
          "name": "tokenId",
          "type": "uint256"
        }
      ],
      "name": "tokenURI",
      "outputs": [
        {
          "internalType": "string",
          "name": "",
          "type": "string"
        }
      ],
      "stateMutability": "view",
      "type": "function",
      "constant": true
    },
    {
      "inputs": [],
      "name": "totalSupply",
      "outputs": [
        {
          "internalType": "uint256",
          "name": "",
          "type": "uint256"
        }
      ],
      "stateMutability": "view",
      "type": "function",
      "constant": true
    },
    {
      "inputs": [
        {
          "internalType": "address",
          "name": "from",
          "type": "address"
        },
        {
          "internalType": "address",
          "name": "to",
          "type": "address"
        },
        {
          "internalType": "uint256",
          "name": "tokenId",
          "type": "uint256"
        }
      ],
      "name": "transferFrom",
      "outputs": [],
      "stateMutability": "nonpayable",
      "type": "function"
    },
    {
      "inputs": [
        {
          "internalType": "uint256",
          "name": "_tokenId",
          "type": "uint256"
        },
        {
          "internalType": "string",
          "name": "_bio",
          "type": "string"
        }
      ],
      "name": "changeBio",
      "outputs": [],
      "stateMutability": "nonpayable",
      "type": "function"
    },
    {
      "inputs": [
        {
          "internalType": "uint256",
          "name": "tokenId",
          "type": "uint256"
        },
        {
          "internalType": "string",
          "name": "newName",
          "type": "string"
        }
      ],
      "name": "changeName",
      "outputs": [],
      "stateMutability": "nonpayable",
      "type": "function"
    },
    {
      "inputs": [
        {
          "internalType": "uint256",
          "name": "index",
          "type": "uint256"
        }
      ],
      "name": "tokenNameByIndex",
      "outputs": [
        {
          "internalType": "string",
          "name": "",
          "type": "string"
        }
      ],
      "stateMutability": "view",
      "type": "function",
      "constant": true
    },
    {
      "inputs": [
        {
          "internalType": "string",
          "name": "nameString",
          "type": "string"
        }
      ],
      "name": "isNameReserved",
      "outputs": [
        {
          "internalType": "bool",
          "name": "",
          "type": "bool"
        }
      ],
      "stateMutability": "view",
      "type": "function",
      "constant": true
    },
    {
      "inputs": [
        {
          "internalType": "string",
          "name": "str",
          "type": "string"
        }
      ],
      "name": "validateName",
      "outputs": [
        {
          "internalType": "bool",
          "name": "",
          "type": "bool"
        }
      ],
      "stateMutability": "pure",
      "type": "function",
      "constant": true
    },
    {
      "inputs": [
        {
          "internalType": "string",
          "name": "str",
          "type": "string"
        }
      ],
      "name": "toLower",
      "outputs": [
        {
          "internalType": "string",
          "name": "",
          "type": "string"
        }
      ],
      "stateMutability": "pure",
      "type": "function",
      "constant": true
    }
  ],
  "bytecode": "0x60a06040819052600060808190526200001b91600a916200017b565b506040805160208101918290526000908190526200003c91600b916200017b565b50600c805460ff191690553480156200005457600080fd5b5060405162002bb238038062002bb28339810160408190526200007791620002d8565b81816200008b6301ffc9a760e01b620000f7565b8151620000a09060069060208501906200017b565b508051620000b69060079060208401906200017b565b50620000c96380ac58cd60e01b620000f7565b620000db635b5e139f60e01b620000f7565b620000ed63780e9d6360e01b620000f7565b5050505062000395565b6001600160e01b03198082161415620001565760405162461bcd60e51b815260206004820152601c60248201527f4552433136353a20696e76616c696420696e7465726661636520696400000000604482015260640160405180910390fd5b6001600160e01b0319166000908152602081905260409020805460ff19166001179055565b828054620001899062000342565b90600052602060002090601f016020900481019282620001ad5760008555620001f8565b82601f10620001c857805160ff1916838001178555620001f8565b82800160010185558215620001f8579182015b82811115620001f8578251825591602001919060010190620001db565b50620002069291506200020a565b5090565b5b808211156200020657600081556001016200020b565b600082601f8301126200023357600080fd5b81516001600160401b03808211156200025057620002506200037f565b604051601f8301601f19908116603f011681019082821181831017156200027b576200027b6200037f565b816040528381526020925086838588010111156200029857600080fd5b600091505b83821015620002bc57858201830151818301840152908201906200029d565b83821115620002ce5760008385830101525b9695505050505050565b60008060408385031215620002ec57600080fd5b82516001600160401b03808211156200030457600080fd5b620003128683870162000221565b935060208501519150808211156200032957600080fd5b50620003388582860162000221565b9150509250929050565b600181811c908216806200035757607f821691505b602082108114156200037957634e487b7160e01b600052602260045260246000fd5b50919050565b634e487b7160e01b600052604160045260246000fd5b61280d80620003a56000396000f3fe608060405234801561001057600080fd5b50600436106101985760003560e01c80636352211e116100e35780639ffdb65a1161008c578063c39cbef111610066578063c39cbef11461037c578063c87b56dd1461038f578063e985e9c5146103a257600080fd5b80639ffdb65a14610343578063a22cb46514610356578063b88d4fde1461036957600080fd5b806370a08231116100bd57806370a08231146103155780639416b4231461032857806395d89b411461033b57600080fd5b80636352211e146102e75780636c0360eb146102fa5780636d5224181461030257600080fd5b806323b872dd1161014557806342842e0e1161011f57806342842e0e146102ae5780634d426528146102c15780634f6ccce7146102d457600080fd5b806323b872dd146102755780632f745c591461028857806336033deb1461029b57600080fd5b8063095ea7b311610176578063095ea7b31461023757806315b56d101461024c57806318160ddd1461025f57600080fd5b806301ffc9a71461019d57806306fdde03146101f7578063081812fc1461020c575b600080fd5b6101e26101ab36600461233e565b7fffffffff000000000000000000000000000000000000000000000000000000001660009081526020819052604090205460ff1690565b60405190151581526020015b60405180910390f35b6101ff6103de565b6040516101ee91906125ae565b61021f61021a3660046123ad565b610470565b6040516001600160a01b0390911681526020016101ee565b61024a6102453660046122fb565b61050e565b005b6101e261025a366004612378565b610640565b610267610673565b6040519081526020016101ee565b61024a610283366004612207565b610684565b6102676102963660046122fb565b61070b565b6101ff6102a93660046123ad565b610736565b61024a6102bc366004612207565b6107d0565b61024a6102cf3660046123c6565b6107eb565b6102676102e23660046123ad565b6108ad565b61021f6102f53660046123ad565b6108c3565b6101ff6108eb565b6101ff6103103660046123ad565b6108fa565b6102676103233660046121b9565b61099c565b6101ff610336366004612378565b610a3b565b6101ff610bc6565b6101e2610351366004612378565b610bd5565b61024a6103643660046122bf565b610e8c565b61024a610377366004612243565b610f51565b61024a61038a3660046123c6565b610fdf565b6101ff61039d3660046123ad565b611335565b6101e26103b03660046121d4565b6001600160a01b03918216600090815260056020908152604080832093909416825291909152205460ff1690565b6060600680546103ed90612655565b80601f016020809104026020016040519081016040528092919081815260200182805461041990612655565b80156104665780601f1061043b57610100808354040283529160200191610466565b820191906000526020600020905b81548152906001019060200180831161044957829003601f168201915b5050505050905090565b600061047b826114cb565b6104f25760405162461bcd60e51b815260206004820152602c60248201527f4552433732313a20617070726f76656420717565727920666f72206e6f6e657860448201527f697374656e7420746f6b656e000000000000000000000000000000000000000060648201526084015b60405180910390fd5b506000908152600460205260409020546001600160a01b031690565b6000610519826108c3565b9050806001600160a01b0316836001600160a01b031614156105a35760405162461bcd60e51b815260206004820152602160248201527f4552433732313a20617070726f76616c20746f2063757272656e74206f776e6560448201527f720000000000000000000000000000000000000000000000000000000000000060648201526084016104e9565b336001600160a01b03821614806105bf57506105bf81336103b0565b6106315760405162461bcd60e51b815260206004820152603860248201527f4552433732313a20617070726f76652063616c6c6572206973206e6f74206f7760448201527f6e6572206e6f7220617070726f76656420666f7220616c6c000000000000000060648201526084016104e9565b61063b83836114d8565b505050565b6000600f61064d83610a3b565b60405161065a9190612439565b9081526040519081900360200190205460ff1692915050565b600061067f600261155e565b905090565b61068e3382611568565b6107005760405162461bcd60e51b815260206004820152603160248201527f4552433732313a207472616e736665722063616c6c6572206973206e6f74206f60448201527f776e6572206e6f7220617070726f76656400000000000000000000000000000060648201526084016104e9565b61063b838383611663565b6001600160a01b038216600090815260016020526040812061072d9083611811565b90505b92915050565b600d602052600090815260409020805461074f90612655565b80601f016020809104026020016040519081016040528092919081815260200182805461077b90612655565b80156107c85780601f1061079d576101008083540402835291602001916107c8565b820191906000526020600020905b8154815290600101906020018083116107ab57829003601f168201915b505050505081565b61063b83838360405180602001604052806000815250610f51565b60006107f6836108c3565b9050336001600160a01b038216146108505760405162461bcd60e51b815260206004820152601f60248201527f4552433732313a2063616c6c6572206973206e6f7420746865206f776e65720060448201526064016104e9565b6000838152600d60209081526040909120835161086f9285019061206e565b50827fbe3e2fc72ea4bd0d860e908b1ee27aa9856809e62a75bfc0cb7f04b5d791873d836040516108a091906125ae565b60405180910390a2505050565b6000806108bb60028461181d565b509392505050565b6000610730826040518060600160405280602981526020016127af6029913960029190611839565b6060600980546103ed90612655565b6000818152600e6020526040902080546060919061091790612655565b80601f016020809104026020016040519081016040528092919081815260200182805461094390612655565b80156109905780601f1061096557610100808354040283529160200191610990565b820191906000526020600020905b81548152906001019060200180831161097357829003601f168201915b50505050509050919050565b60006001600160a01b038216610a1a5760405162461bcd60e51b815260206004820152602a60248201527f4552433732313a2062616c616e636520717565727920666f7220746865207a6560448201527f726f20616464726573730000000000000000000000000000000000000000000060648201526084016104e9565b6001600160a01b03821660009081526001602052604090206107309061155e565b606060008290506000815167ffffffffffffffff811115610a5e57610a5e612735565b6040519080825280601f01601f191660200182016040528015610a88576020820181803683370190505b50905060005b82518110156108bb576041838281518110610aab57610aab61271f565b016020015160f81c10801590610adb5750605a838281518110610ad057610ad061271f565b016020015160f81c11155b15610b5557828181518110610af257610af261271f565b602001015160f81c60f81b60f81c6020610b0c91906125d9565b60f81b828281518110610b2157610b2161271f565b60200101907effffffffffffffffffffffffffffffffffffffffffffffffffffffffffffff1916908160001a905350610bb4565b828181518110610b6757610b6761271f565b602001015160f81c60f81b828281518110610b8457610b8461271f565b60200101907effffffffffffffffffffffffffffffffffffffffffffffffffffffffffffff1916908160001a9053505b80610bbe81612690565b915050610a8e565b6060600780546103ed90612655565b600080829050600181511015610bee5750600092915050565b601981511115610c015750600092915050565b80600081518110610c1457610c1461271f565b6020910101516001600160f81b031916600160fd1b1415610c385750600092915050565b8060018251610c479190612612565b81518110610c5757610c5761271f565b6020910101516001600160f81b031916600160fd1b1415610c7b5750600092915050565b600081600081518110610c9057610c9061271f565b01602001516001600160f81b031916905060005b8251811015610e81576000838281518110610cc157610cc161271f565b01602001516001600160f81b0319169050600160fd1b81148015610cf25750600160fd1b6001600160f81b03198416145b15610d035750600095945050505050565b7f30000000000000000000000000000000000000000000000000000000000000006001600160f81b0319821610801590610d6757507f39000000000000000000000000000000000000000000000000000000000000006001600160f81b0319821611155b158015610dd557507f41000000000000000000000000000000000000000000000000000000000000006001600160f81b0319821610801590610dd357507f5a000000000000000000000000000000000000000000000000000000000000006001600160f81b0319821611155b155b8015610e4257507f61000000000000000000000000000000000000000000000000000000000000006001600160f81b0319821610801590610e4057507f7a000000000000000000000000000000000000000000000000000000000000006001600160f81b0319821611155b155b8015610e5c5750600160fd1b6001600160f81b0319821614155b15610e6d5750600095945050505050565b915080610e7981612690565b915050610ca4565b506001949350505050565b6001600160a01b038216331415610ee55760405162461bcd60e51b815260206004820152601960248201527f4552433732313a20617070726f766520746f2063616c6c65720000000000000060448201526064016104e9565b3360008181526005602090815260408083206001600160a01b03871680855290835292819020805460ff191686151590811790915590519081529192917f17307eab39ab6107e8899845ad3d59bd9653f200f220920489ca2b5937696c31910160405180910390a35050565b610f5b3383611568565b610fcd5760405162461bcd60e51b815260206004820152603160248201527f4552433732313a207472616e736665722063616c6c6572206973206e6f74206f60448201527f776e6572206e6f7220617070726f76656400000000000000000000000000000060648201526084016104e9565b610fd984848484611850565b50505050565b6000610fea836108c3565b9050336001600160a01b038216146110445760405162461bcd60e51b815260206004820152601f60248201527f4552433732313a2063616c6c6572206973206e6f7420746865206f776e65720060448201526064016104e9565b61104d82610bd5565b151560011461109e5760405162461bcd60e51b815260206004820152601460248201527f4e6f7420612076616c6964206e6577206e616d6500000000000000000000000060448201526064016104e9565b6000838152600e60205260409081902090516002916110bc91612455565b602060405180830381855afa1580156110d9573d6000803e3d6000fd5b5050506040513d601f19601f820116820180604052508101906110fc9190612325565b60028360405161110c9190612439565b602060405180830381855afa158015611129573d6000803e3d6000fd5b5050506040513d601f19601f8201168201806040525081019061114c9190612325565b14156111c05760405162461bcd60e51b815260206004820152602360248201527f4e6577206e616d652069732073616d65206173207468652063757272656e742060448201527f6f6e65000000000000000000000000000000000000000000000000000000000060648201526084016104e9565b6111c982610640565b156112165760405162461bcd60e51b815260206004820152601560248201527f4e616d6520616c7265616479207265736572766564000000000000000000000060448201526064016104e9565b6000838152600e60205260408120805461122f90612655565b905011156112da576000838152600e6020526040902080546112da919061125590612655565b80601f016020809104026020016040519081016040528092919081815260200182805461128190612655565b80156112ce5780601f106112a3576101008083540402835291602001916112ce565b820191906000526020600020905b8154815290600101906020018083116112b157829003601f168201915b505050505060006118d9565b6112e58260016118d9565b6000838152600e6020908152604090912083516113049285019061206e565b50827f7e632a301794d8d4a81ea7e20f37d1947158d36e66403af04ba85dd194b66f1b836040516108a091906125ae565b6060611340826114cb565b6113b25760405162461bcd60e51b815260206004820152602f60248201527f4552433732314d657461646174613a2055524920717565727920666f72206e6f60448201527f6e6578697374656e7420746f6b656e000000000000000000000000000000000060648201526084016104e9565b600c5460ff166113c957600b805461091790612655565b600082815260086020526040812080546113e290612655565b80601f016020809104026020016040519081016040528092919081815260200182805461140e90612655565b801561145b5780601f106114305761010080835404028352916020019161145b565b820191906000526020600020905b81548152906001019060200180831161143e57829003601f168201915b505050505090506009805461146f90612655565b1515905061147d5792915050565b8051156114af576009816040516020016114989291906124c7565b604051602081830303815290604052915050919050565b60096114ba84611916565b6040516020016114989291906124c7565b6000610730600283611a48565b600081815260046020526040902080547fffffffffffffffffffffffff0000000000000000000000000000000000000000166001600160a01b0384169081179091558190611525826108c3565b6001600160a01b03167f8c5be1e5ebec7d5bd14f71427d1e84f3dd0314c0f7b2291e5b200ac8c7c3b92560405160405180910390a45050565b6000610730825490565b6000611573826114cb565b6115e55760405162461bcd60e51b815260206004820152602c60248201527f4552433732313a206f70657261746f7220717565727920666f72206e6f6e657860448201527f697374656e7420746f6b656e000000000000000000000000000000000000000060648201526084016104e9565b60006115f0836108c3565b9050806001600160a01b0316846001600160a01b0316148061162b5750836001600160a01b031661162084610470565b6001600160a01b0316145b8061165b57506001600160a01b0380821660009081526005602090815260408083209388168352929052205460ff165b949350505050565b826001600160a01b0316611676826108c3565b6001600160a01b0316146116f25760405162461bcd60e51b815260206004820152602960248201527f4552433732313a207472616e73666572206f6620746f6b656e2074686174206960448201527f73206e6f74206f776e000000000000000000000000000000000000000000000060648201526084016104e9565b6001600160a01b03821661176d5760405162461bcd60e51b8152602060048201526024808201527f4552433732313a207472616e7366657220746f20746865207a65726f2061646460448201527f726573730000000000000000000000000000000000000000000000000000000060648201526084016104e9565b6117786000826114d8565b6001600160a01b038316600090815260016020526040902061179a9082611a60565b506001600160a01b03821660009081526001602052604090206117bd9082611a6c565b506117ca60028284611a78565b5080826001600160a01b0316846001600160a01b03167fddf252ad1be2c89b69c2b068fc378daa952ba7f163c4a11628f55a4df523b3ef60405160405180910390a4505050565b600061072d8383611a8e565b600080808061182c8686611b2f565b9097909650945050505050565b6000611846848484611be7565b90505b9392505050565b61185b848484611663565b61186784848484611c50565b610fd95760405162461bcd60e51b815260206004820152603260248201527f4552433732313a207472616e7366657220746f206e6f6e20455243373231526560448201527f63656976657220696d706c656d656e746572000000000000000000000000000060648201526084016104e9565b80600f6118e584610a3b565b6040516118f29190612439565b908152604051908190036020019020805491151560ff199092169190911790555050565b60608161195657505060408051808201909152600181527f3000000000000000000000000000000000000000000000000000000000000000602082015290565b8160005b8115611980578061196a81612690565b91506119799050600a836125fe565b915061195a565b60008167ffffffffffffffff81111561199b5761199b612735565b6040519080825280601f01601f1916602001820160405280156119c5576020820181803683370190505b5090505b841561165b576119da600183612612565b91506119e7600a866126c9565b6119f29060306125c1565b60f81b818381518110611a0757611a0761271f565b60200101907effffffffffffffffffffffffffffffffffffffffffffffffffffffffffffff1916908160001a905350611a41600a866125fe565b94506119c9565b6000818152600183016020526040812054151561072d565b600061072d8383611d95565b600061072d8383611e88565b600061184684846001600160a01b038516611ed7565b81546000908210611b075760405162461bcd60e51b815260206004820152602260248201527f456e756d657261626c655365743a20696e646578206f7574206f6620626f756e60448201527f647300000000000000000000000000000000000000000000000000000000000060648201526084016104e9565b826000018281548110611b1c57611b1c61271f565b9060005260206000200154905092915050565b815460009081908310611baa5760405162461bcd60e51b815260206004820152602260248201527f456e756d657261626c654d61703a20696e646578206f7574206f6620626f756e60448201527f647300000000000000000000000000000000000000000000000000000000000060648201526084016104e9565b6000846000018481548110611bc157611bc161271f565b906000526020600020906002020190508060000154816001015492509250509250929050565b60008281526001840160205260408120548281611c175760405162461bcd60e51b81526004016104e991906125ae565b5084611c24600183612612565b81548110611c3457611c3461271f565b9060005260206000209060020201600101549150509392505050565b60006001600160a01b0384163b611c695750600161165b565b6000611d2d7f150b7a020000000000000000000000000000000000000000000000000000000033888787604051602401611ca69493929190612572565b604051602081830303815290604052907bffffffffffffffffffffffffffffffffffffffffffffffffffffffff19166020820180517bffffffffffffffffffffffffffffffffffffffffffffffffffffffff838183161783525050505060405180606001604052806032815260200161277d603291396001600160a01b0388169190611f78565b9050600081806020019051810190611d45919061235b565b7fffffffff00000000000000000000000000000000000000000000000000000000167f150b7a02000000000000000000000000000000000000000000000000000000001492505050949350505050565b60008181526001830160205260408120548015611e7e576000611db9600183612612565b8554909150600090611dcd90600190612612565b90506000866000018281548110611de657611de661271f565b9060005260206000200154905080876000018481548110611e0957611e0961271f565b600091825260209091200155611e208360016125c1565b60008281526001890160205260409020558654879080611e4257611e42612709565b60019003818190600052602060002001600090559055866001016000878152602001908152602001600020600090556001945050505050610730565b6000915050610730565b6000818152600183016020526040812054611ecf57508154600181810184556000848152602080822090930184905584548482528286019093526040902091909155610730565b506000610730565b600082815260018401602052604081205480611f3c575050604080518082018252838152602080820184815286546001818101895560008981528481209551600290930290950191825591519082015586548684528188019092529290912055611849565b8285611f49600184612612565b81548110611f5957611f5961271f565b9060005260206000209060020201600101819055506000915050611849565b606061184684846000856060843b611fd25760405162461bcd60e51b815260206004820152601d60248201527f416464726573733a2063616c6c20746f206e6f6e2d636f6e747261637400000060448201526064016104e9565b600080866001600160a01b03168587604051611fee9190612439565b60006040518083038185875af1925050503d806000811461202b576040519150601f19603f3d011682016040523d82523d6000602084013e612030565b606091505b5091509150811561204457915061165b9050565b8051156120545780518082602001fd5b8360405162461bcd60e51b81526004016104e991906125ae565b82805461207a90612655565b90600052602060002090601f01602090048101928261209c57600085556120e2565b82601f106120b557805160ff19168380011785556120e2565b828001600101855582156120e2579182015b828111156120e25782518255916020019190600101906120c7565b506120ee9291506120f2565b5090565b5b808211156120ee57600081556001016120f3565b600067ffffffffffffffff8084111561212257612122612735565b604051601f8501601f19908116603f0116810190828211818310171561214a5761214a612735565b8160405280935085815286868601111561216357600080fd5b858560208301376000602087830101525050509392505050565b80356001600160a01b038116811461219457600080fd5b919050565b600082601f8301126121aa57600080fd5b61072d83833560208501612107565b6000602082840312156121cb57600080fd5b61072d8261217d565b600080604083850312156121e757600080fd5b6121f08361217d565b91506121fe6020840161217d565b90509250929050565b60008060006060848603121561221c57600080fd5b6122258461217d565b92506122336020850161217d565b9150604084013590509250925092565b6000806000806080858703121561225957600080fd5b6122628561217d565b93506122706020860161217d565b925060408501359150606085013567ffffffffffffffff81111561229357600080fd5b8501601f810187136122a457600080fd5b6122b387823560208401612107565b91505092959194509250565b600080604083850312156122d257600080fd5b6122db8361217d565b9150602083013580151581146122f057600080fd5b809150509250929050565b6000806040838503121561230e57600080fd5b6123178361217d565b946020939093013593505050565b60006020828403121561233757600080fd5b5051919050565b60006020828403121561235057600080fd5b81356118498161274b565b60006020828403121561236d57600080fd5b81516118498161274b565b60006020828403121561238a57600080fd5b813567ffffffffffffffff8111156123a157600080fd5b61165b84828501612199565b6000602082840312156123bf57600080fd5b5035919050565b600080604083850312156123d957600080fd5b82359150602083013567ffffffffffffffff8111156123f757600080fd5b61240385828601612199565b9150509250929050565b60008151808452612425816020860160208601612629565b601f01601f19169290920160200192915050565b6000825161244b818460208701612629565b9190910192915050565b600080835461246381612655565b6001828116801561247b576001811461248c576124bb565b60ff198416875282870194506124bb565b8760005260208060002060005b858110156124b25781548a820152908401908201612499565b50505082870194505b50929695505050505050565b60008084546124d581612655565b600182811680156124ed57600181146124fe5761252d565b60ff1984168752828701945061252d565b8860005260208060002060005b858110156125245781548a82015290840190820161250b565b50505082870194505b505050508351612541818360208801612629565b7f2e6a736f6e0000000000000000000000000000000000000000000000000000009101908152600501949350505050565b60006001600160a01b038087168352808616602084015250836040830152608060608301526125a4608083018461240d565b9695505050505050565b60208152600061072d602083018461240d565b600082198211156125d4576125d46126dd565b500190565b600060ff821660ff84168060ff038211156125f6576125f66126dd565b019392505050565b60008261260d5761260d6126f3565b500490565b600082821015612624576126246126dd565b500390565b60005b8381101561264457818101518382015260200161262c565b83811115610fd95750506000910152565b600181811c9082168061266957607f821691505b6020821081141561268a57634e487b7160e01b600052602260045260246000fd5b50919050565b60007fffffffffffffffffffffffffffffffffffffffffffffffffffffffffffffffff8214156126c2576126c26126dd565b5060010190565b6000826126d8576126d86126f3565b500690565b634e487b7160e01b600052601160045260246000fd5b634e487b7160e01b600052601260045260246000fd5b634e487b7160e01b600052603160045260246000fd5b634e487b7160e01b600052603260045260246000fd5b634e487b7160e01b600052604160045260246000fd5b7fffffffff000000000000000000000000000000000000000000000000000000008116811461277957600080fd5b5056fe4552433732313a207472616e7366657220746f206e6f6e20455243373231526563656976657220696d706c656d656e7465724552433732313a206f776e657220717565727920666f72206e6f6e6578697374656e7420746f6b656ea264697066735822122061071743b9c7be16fc3283721b416d61aaa395df30874d06424d6c2d182e16e464736f6c63430008060033",
  "immutableReferences": {},
  "source": "// SPDX-License-Identifier: MIT\npragma experimental ABIEncoderV2;\npragma solidity >=0.8.6;\n\nimport \"./ERC721.sol\";\n\n\ncontract ERC721Namable is ERC721 {\n\n\tmapping(uint256 => string) public bio;\n\n\t// Mapping from token ID to name\n\tmapping (uint256 => string) private _tokenName;\n\n\t// Mapping if certain name string has already been reserved\n\tmapping (string => bool) private _nameReserved;\n\n\tevent NameChange (uint256 indexed tokenId, string newName);\n\tevent BioChange (uint256 indexed tokenId, string bio);\n\n\tconstructor(string memory _name, string memory _symbol) ERC721(_name, _symbol) {\n\n\t}\n\n\tfunction changeBio(uint256 _tokenId, string memory _bio) public virtual {\n\t\taddress owner = ownerOf(_tokenId);\n\t\trequire(_msgSender() == owner, \"ERC721: caller is not the owner\");\n\n\t\tbio[_tokenId] = _bio;\n\t\temit BioChange(_tokenId, _bio);\n\t}\n\n\tfunction changeName(uint256 tokenId, string memory newName) public virtual {\n\t\taddress owner = ownerOf(tokenId);\n\n\t\trequire(_msgSender() == owner, \"ERC721: caller is not the owner\");\n\t\trequire(validateName(newName) == true, \"Not a valid new name\");\n\t\trequire(sha256(bytes(newName)) != sha256(bytes(_tokenName[tokenId])), \"New name is same as the current one\");\n\t\trequire(isNameReserved(newName) == false, \"Name already reserved\");\n\n\t\t// If already named, dereserve old name\n\t\tif (bytes(_tokenName[tokenId]).length > 0) {\n\t\t\ttoggleReserveName(_tokenName[tokenId], false);\n\t\t}\n\t\ttoggleReserveName(newName, true);\n\t\t_tokenName[tokenId] = newName;\n\t\temit NameChange(tokenId, newName);\n\t}\n\n\t/**\n\t * @dev Reserves the name if isReserve is set to true, de-reserves if set to false\n\t */\n\tfunction toggleReserveName(string memory str, bool isReserve) internal {\n\t\t_nameReserved[toLower(str)] = isReserve;\n\t}\n\n\t/**\n\t * @dev Returns name of the NFT at index.\n\t */\n\tfunction tokenNameByIndex(uint256 index) public view returns (string memory) {\n\t\treturn _tokenName[index];\n\t}\n\n\t/**\n\t * @dev Returns if the name has been reserved.\n\t */\n\tfunction isNameReserved(string memory nameString) public view returns (bool) {\n\t\treturn _nameReserved[toLower(nameString)];\n\t}\n\n\tfunction validateName(string memory str) public pure returns (bool){\n\t\tbytes memory b = bytes(str);\n\t\tif(b.length < 1) return false;\n\t\tif(b.length > 25) return false; // Cannot be longer than 25 characters\n\t\tif(b[0] == 0x20) return false; // Leading space\n\t\tif (b[b.length - 1] == 0x20) return false; // Trailing space\n\n\t\tbytes1 lastChar = b[0];\n\n\t\tfor(uint i; i<b.length; i++){\n\t\t\tbytes1 char = b[i];\n\n\t\t\tif (char == 0x20 && lastChar == 0x20) return false; // Cannot contain continous spaces\n\n\t\t\tif(\n\t\t\t\t!(char >= 0x30 && char <= 0x39) && //9-0\n\t\t\t\t!(char >= 0x41 && char <= 0x5A) && //A-Z\n\t\t\t\t!(char >= 0x61 && char <= 0x7A) && //a-z\n\t\t\t\t!(char == 0x20) //space\n\t\t\t)\n\t\t\t\treturn false;\n\n\t\t\tlastChar = char;\n\t\t}\n\n\t\treturn true;\n\t}\n\n\t /**\n\t * @dev Converts the string to lowercase\n\t */\n\tfunction toLower(string memory str) public pure returns (string memory){\n\t\tbytes memory bStr = bytes(str);\n\t\tbytes memory bLower = new bytes(bStr.length);\n\t\tfor (uint i = 0; i < bStr.length; i++) {\n\t\t\t// Uppercase character\n\t\t\tif ((uint8(bStr[i]) >= 65) && (uint8(bStr[i]) <= 90)) {\n\t\t\t\tbLower[i] = bytes1(uint8(bStr[i]) + 32);\n\t\t\t} else {\n\t\t\t\tbLower[i] = bStr[i];\n\t\t\t}\n\t\t}\n\t\treturn string(bLower);\n\t}\n}\n",
  "sourcePath": "/home/master/Desktop/Solidity/OSIS-Metabadges/contracts/ERC721Namable.sol",
  "compiler": {
    "name": "solc",
    "version": "0.8.6+commit.11564f7e.Emscripten.clang"
  },
  "schemaVersion": "3.4.6",
  "updatedAt": "2022-04-12T04:11:50.045Z",
  "networkType": "ethereum",
  "devdoc": {
    "kind": "dev",
    "methods": {
      "approve(address,uint256)": {
        "details": "See {IERC721-approve}."
      },
      "balanceOf(address)": {
        "details": "See {IERC721-balanceOf}."
      },
      "baseURI()": {
        "details": "Returns the base URI set via {_setBaseURI}. This will be automatically added as a prefix in {tokenURI} to each token's URI, or to the token ID if no specific URI is set for that token ID."
      },
      "getApproved(uint256)": {
        "details": "See {IERC721-getApproved}."
      },
      "isApprovedForAll(address,address)": {
        "details": "See {IERC721-isApprovedForAll}."
      },
      "isNameReserved(string)": {
        "details": "Returns if the name has been reserved."
      },
      "name()": {
        "details": "See {IERC721Metadata-name}."
      },
      "ownerOf(uint256)": {
        "details": "See {IERC721-ownerOf}."
      },
      "safeTransferFrom(address,address,uint256)": {
        "details": "See {IERC721-safeTransferFrom}."
      },
      "safeTransferFrom(address,address,uint256,bytes)": {
        "details": "See {IERC721-safeTransferFrom}."
      },
      "setApprovalForAll(address,bool)": {
        "details": "See {IERC721-setApprovalForAll}."
      },
      "supportsInterface(bytes4)": {
        "details": "See {IERC165-supportsInterface}. Time complexity O(1), guaranteed to always use less than 30 000 gas."
      },
      "symbol()": {
        "details": "See {IERC721Metadata-symbol}."
      },
      "toLower(string)": {
        "details": "Converts the string to lowercase"
      },
      "tokenByIndex(uint256)": {
        "details": "See {IERC721Enumerable-tokenByIndex}."
      },
      "tokenNameByIndex(uint256)": {
        "details": "Returns name of the NFT at index."
      },
      "tokenOfOwnerByIndex(address,uint256)": {
        "details": "See {IERC721Enumerable-tokenOfOwnerByIndex}."
      },
      "tokenURI(uint256)": {
        "details": "See {IERC721Metadata-tokenURI}."
      },
      "totalSupply()": {
        "details": "See {IERC721Enumerable-totalSupply}."
      },
      "transferFrom(address,address,uint256)": {
        "details": "See {IERC721-transferFrom}."
      }
    },
    "version": 1
  },
  "userdoc": {
    "kind": "user",
    "methods": {},
    "version": 1
  }
}