{
  "contractName": "MetaBadge",
  "abi": [
    {
      "inputs": [
        {
          "internalType": "string",
          "name": "_name",
          "type": "string"
        },
        {
          "internalType": "string",
          "name": "_symbol",
          "type": "string"
        },
        {
          "internalType": "string",
          "name": "_baseURI",
          "type": "string"
        },
        {
          "internalType": "string",
          "name": "_hiddenURI",
          "type": "string"
        }
      ],
      "stateMutability": "nonpayable",
      "type": "constructor"
    },
    {
      "anonymous": false,
      "inputs": [
        {
          "indexed": true,
          "internalType": "address",
          "name": "owner",
          "type": "address"
        },
        {
          "indexed": true,
          "internalType": "address",
          "name": "approved",
          "type": "address"
        },
        {
          "indexed": true,
          "internalType": "uint256",
          "name": "tokenId",
          "type": "uint256"
        }
      ],
      "name": "Approval",
      "type": "event"
    },
    {
      "anonymous": false,
      "inputs": [
        {
          "indexed": true,
          "internalType": "address",
          "name": "owner",
          "type": "address"
        },
        {
          "indexed": true,
          "internalType": "address",
          "name": "operator",
          "type": "address"
        },
        {
          "indexed": false,
          "internalType": "bool",
          "name": "approved",
          "type": "bool"
        }
      ],
      "name": "ApprovalForAll",
      "type": "event"
    },
    {
      "anonymous": false,
      "inputs": [
        {
          "indexed": true,
          "internalType": "uint256",
          "name": "tokenId",
          "type": "uint256"
        },
        {
          "indexed": false,
          "internalType": "string",
          "name": "bio",
          "type": "string"
        }
      ],
      "name": "BioChange",
      "type": "event"
    },
    {
      "anonymous": false,
      "inputs": [
        {
          "indexed": true,
          "internalType": "uint256",
          "name": "tokenId",
          "type": "uint256"
        },
        {
          "indexed": false,
          "internalType": "string",
          "name": "newName",
          "type": "string"
        }
      ],
      "name": "NameChange",
      "type": "event"
    },
    {
      "anonymous": false,
      "inputs": [
        {
          "indexed": true,
          "internalType": "address",
          "name": "previousOwner",
          "type": "address"
        },
        {
          "indexed": true,
          "internalType": "address",
          "name": "newOwner",
          "type": "address"
        }
      ],
      "name": "OwnershipTransferred",
      "type": "event"
    },
    {
      "anonymous": false,
      "inputs": [
        {
          "indexed": true,
          "internalType": "address",
          "name": "from",
          "type": "address"
        },
        {
          "indexed": true,
          "internalType": "address",
          "name": "to",
          "type": "address"
        },
        {
          "indexed": true,
          "internalType": "uint256",
          "name": "tokenId",
          "type": "uint256"
        }
      ],
      "name": "Transfer",
      "type": "event"
    },
    {
      "stateMutability": "payable",
      "type": "fallback",
      "payable": true
    },
    {
      "inputs": [
        {
          "internalType": "address",
          "name": "to",
          "type": "address"
        },
        {
          "internalType": "uint256",
          "name": "tokenId",
          "type": "uint256"
        }
      ],
      "name": "approve",
      "outputs": [],
      "stateMutability": "nonpayable",
      "type": "function"
    },
    {
      "inputs": [],
      "name": "availableTokenCountTier1",
      "outputs": [
        {
          "internalType": "uint256",
          "name": "",
          "type": "uint256"
        }
      ],
      "stateMutability": "view",
      "type": "function",
      "constant": true
    },
    {
      "inputs": [],
      "name": "availableTokenCountTier2",
      "outputs": [
        {
          "internalType": "uint256",
          "name": "",
          "type": "uint256"
        }
      ],
      "stateMutability": "view",
      "type": "function",
      "constant": true
    },
    {
      "inputs": [
        {
          "internalType": "address",
          "name": "owner",
          "type": "address"
        }
      ],
      "name": "balanceOf",
      "outputs": [
        {
          "internalType": "uint256",
          "name": "",
          "type": "uint256"
        }
      ],
      "stateMutability": "view",
      "type": "function",
      "constant": true
    },
    {
      "inputs": [],
      "name": "baseURI",
      "outputs": [
        {
          "internalType": "string",
          "name": "",
          "type": "string"
        }
      ],
      "stateMutability": "view",
      "type": "function",
      "constant": true
    },
    {
      "inputs": [
        {
          "internalType": "uint256",
          "name": "",
          "type": "uint256"
        }
      ],
      "name": "bio",
      "outputs": [
        {
          "internalType": "string",
          "name": "",
          "type": "string"
        }
      ],
      "stateMutability": "view",
      "type": "function",
      "constant": true
    },
    {
      "inputs": [
        {
          "internalType": "uint256",
          "name": "_tokenId",
          "type": "uint256"
        },
        {
          "internalType": "string",
          "name": "_bio",
          "type": "string"
        }
      ],
      "name": "changeBio",
      "outputs": [],
      "stateMutability": "nonpayable",
      "type": "function"
    },
    {
      "inputs": [
        {
          "internalType": "uint256",
          "name": "tokenId",
          "type": "uint256"
        },
        {
          "internalType": "string",
          "name": "newName",
          "type": "string"
        }
      ],
      "name": "changeName",
      "outputs": [],
      "stateMutability": "nonpayable",
      "type": "function"
    },
    {
      "inputs": [
        {
          "internalType": "uint256",
          "name": "tokenId",
          "type": "uint256"
        }
      ],
      "name": "getApproved",
      "outputs": [
        {
          "internalType": "address",
          "name": "",
          "type": "address"
        }
      ],
      "stateMutability": "view",
      "type": "function",
      "constant": true
    },
    {
      "inputs": [
        {
          "internalType": "address",
          "name": "owner",
          "type": "address"
        },
        {
          "internalType": "address",
          "name": "operator",
          "type": "address"
        }
      ],
      "name": "isApprovedForAll",
      "outputs": [
        {
          "internalType": "bool",
          "name": "",
          "type": "bool"
        }
      ],
      "stateMutability": "view",
      "type": "function",
      "constant": true
    },
    {
      "inputs": [
        {
          "internalType": "string",
          "name": "nameString",
          "type": "string"
        }
      ],
      "name": "isNameReserved",
      "outputs": [
        {
          "internalType": "bool",
          "name": "",
          "type": "bool"
        }
      ],
      "stateMutability": "view",
      "type": "function",
      "constant": true
    },
    {
      "inputs": [],
      "name": "name",
      "outputs": [
        {
          "internalType": "string",
          "name": "",
          "type": "string"
        }
      ],
      "stateMutability": "view",
      "type": "function",
      "constant": true
    },
    {
      "inputs": [],
      "name": "owner",
      "outputs": [
        {
          "internalType": "address",
          "name": "",
          "type": "address"
        }
      ],
      "stateMutability": "view",
      "type": "function",
      "constant": true
    },
    {
      "inputs": [
        {
          "internalType": "uint256",
          "name": "tokenId",
          "type": "uint256"
        }
      ],
      "name": "ownerOf",
      "outputs": [
        {
          "internalType": "address",
          "name": "",
          "type": "address"
        }
      ],
      "stateMutability": "view",
      "type": "function",
      "constant": true
    },
    {
      "inputs": [],
      "name": "renounceOwnership",
      "outputs": [],
      "stateMutability": "nonpayable",
      "type": "function"
    },
    {
      "inputs": [
        {
          "internalType": "address",
          "name": "from",
          "type": "address"
        },
        {
          "internalType": "address",
          "name": "to",
          "type": "address"
        },
        {
          "internalType": "uint256",
          "name": "tokenId",
          "type": "uint256"
        }
      ],
      "name": "safeTransferFrom",
      "outputs": [],
      "stateMutability": "nonpayable",
      "type": "function"
    },
    {
      "inputs": [
        {
          "internalType": "address",
          "name": "from",
          "type": "address"
        },
        {
          "internalType": "address",
          "name": "to",
          "type": "address"
        },
        {
          "internalType": "uint256",
          "name": "tokenId",
          "type": "uint256"
        },
        {
          "internalType": "bytes",
          "name": "_data",
          "type": "bytes"
        }
      ],
      "name": "safeTransferFrom",
      "outputs": [],
      "stateMutability": "nonpayable",
      "type": "function"
    },
    {
      "inputs": [
        {
          "internalType": "address",
          "name": "operator",
          "type": "address"
        },
        {
          "internalType": "bool",
          "name": "approved",
          "type": "bool"
        }
      ],
      "name": "setApprovalForAll",
      "outputs": [],
      "stateMutability": "nonpayable",
      "type": "function"
    },
    {
      "inputs": [
        {
          "internalType": "bytes4",
          "name": "interfaceId",
          "type": "bytes4"
        }
      ],
      "name": "supportsInterface",
      "outputs": [
        {
          "internalType": "bool",
          "name": "",
          "type": "bool"
        }
      ],
      "stateMutability": "view",
      "type": "function",
      "constant": true
    },
    {
      "inputs": [],
      "name": "symbol",
      "outputs": [
        {
          "internalType": "string",
          "name": "",
          "type": "string"
        }
      ],
      "stateMutability": "view",
      "type": "function",
      "constant": true
    },
    {
      "inputs": [
        {
          "internalType": "string",
          "name": "str",
          "type": "string"
        }
      ],
      "name": "toLower",
      "outputs": [
        {
          "internalType": "string",
          "name": "",
          "type": "string"
        }
      ],
      "stateMutability": "pure",
      "type": "function",
      "constant": true
    },
    {
      "inputs": [
        {
          "internalType": "uint256",
          "name": "index",
          "type": "uint256"
        }
      ],
      "name": "tokenByIndex",
      "outputs": [
        {
          "internalType": "uint256",
          "name": "",
          "type": "uint256"
        }
      ],
      "stateMutability": "view",
      "type": "function",
      "constant": true
    },
    {
      "inputs": [],
      "name": "tokenCountForTier1",
      "outputs": [
        {
          "internalType": "uint256",
          "name": "",
          "type": "uint256"
        }
      ],
      "stateMutability": "view",
      "type": "function",
      "constant": true
    },
    {
      "inputs": [],
      "name": "tokenCountForTier2",
      "outputs": [
        {
          "internalType": "uint256",
          "name": "",
          "type": "uint256"
        }
      ],
      "stateMutability": "view",
      "type": "function",
      "constant": true
    },
    {
      "inputs": [
        {
          "internalType": "uint256",
          "name": "index",
          "type": "uint256"
        }
      ],
      "name": "tokenNameByIndex",
      "outputs": [
        {
          "internalType": "string",
          "name": "",
          "type": "string"
        }
      ],
      "stateMutability": "view",
      "type": "function",
      "constant": true
    },
    {
      "inputs": [
        {
          "internalType": "address",
          "name": "owner",
          "type": "address"
        },
        {
          "internalType": "uint256",
          "name": "index",
          "type": "uint256"
        }
      ],
      "name": "tokenOfOwnerByIndex",
      "outputs": [
        {
          "internalType": "uint256",
          "name": "",
          "type": "uint256"
        }
      ],
      "stateMutability": "view",
      "type": "function",
      "constant": true
    },
    {
      "inputs": [
        {
          "internalType": "uint256",
          "name": "tokenId",
          "type": "uint256"
        }
      ],
      "name": "tokenURI",
      "outputs": [
        {
          "internalType": "string",
          "name": "",
          "type": "string"
        }
      ],
      "stateMutability": "view",
      "type": "function",
      "constant": true
    },
    {
      "inputs": [],
      "name": "totalSupply",
      "outputs": [
        {
          "internalType": "uint256",
          "name": "",
          "type": "uint256"
        }
      ],
      "stateMutability": "view",
      "type": "function",
      "constant": true
    },
    {
      "inputs": [],
      "name": "totalSupplyNftTier1",
      "outputs": [
        {
          "internalType": "uint256",
          "name": "",
          "type": "uint256"
        }
      ],
      "stateMutability": "view",
      "type": "function",
      "constant": true
    },
    {
      "inputs": [],
      "name": "totalSupplyNftTier2",
      "outputs": [
        {
          "internalType": "uint256",
          "name": "",
          "type": "uint256"
        }
      ],
      "stateMutability": "view",
      "type": "function",
      "constant": true
    },
    {
      "inputs": [
        {
          "internalType": "address",
          "name": "from",
          "type": "address"
        },
        {
          "internalType": "address",
          "name": "to",
          "type": "address"
        },
        {
          "internalType": "uint256",
          "name": "tokenId",
          "type": "uint256"
        }
      ],
      "name": "transferFrom",
      "outputs": [],
      "stateMutability": "nonpayable",
      "type": "function"
    },
    {
      "inputs": [
        {
          "internalType": "address",
          "name": "newOwner",
          "type": "address"
        }
      ],
      "name": "transferOwnership",
      "outputs": [],
      "stateMutability": "nonpayable",
      "type": "function"
    },
    {
      "inputs": [
        {
          "internalType": "string",
          "name": "str",
          "type": "string"
        }
      ],
      "name": "validateName",
      "outputs": [
        {
          "internalType": "bool",
          "name": "",
          "type": "bool"
        }
      ],
      "stateMutability": "pure",
      "type": "function",
      "constant": true
    },
    {
      "stateMutability": "payable",
      "type": "receive",
      "payable": true
    },
    {
      "inputs": [
        {
          "internalType": "bool",
          "name": "value",
          "type": "bool"
        }
      ],
      "name": "setReveal",
      "outputs": [],
      "stateMutability": "nonpayable",
      "type": "function"
    },
    {
      "inputs": [],
      "name": "withdraw",
      "outputs": [],
      "stateMutability": "nonpayable",
      "type": "function"
    },
    {
      "inputs": [
        {
          "internalType": "string",
          "name": "_newURI",
          "type": "string"
        }
      ],
      "name": "updateURI",
      "outputs": [],
      "stateMutability": "nonpayable",
      "type": "function"
    },
    {
      "inputs": [],
      "name": "getBalance",
      "outputs": [
        {
          "internalType": "uint256",
          "name": "",
          "type": "uint256"
        }
      ],
      "stateMutability": "view",
      "type": "function",
      "constant": true
    },
    {
      "inputs": [],
      "name": "getTier1Price",
      "outputs": [
        {
          "internalType": "uint256",
          "name": "",
          "type": "uint256"
        }
      ],
      "stateMutability": "view",
      "type": "function",
      "constant": true
    },
    {
      "inputs": [],
      "name": "getTier2Price",
      "outputs": [
        {
          "internalType": "uint256",
          "name": "",
          "type": "uint256"
        }
      ],
      "stateMutability": "view",
      "type": "function",
      "constant": true
    },
    {
      "inputs": [],
      "name": "getWhitelistPrice",
      "outputs": [
        {
          "internalType": "uint256",
          "name": "",
          "type": "uint256"
        }
      ],
      "stateMutability": "view",
      "type": "function",
      "constant": true
    },
    {
      "inputs": [
        {
          "internalType": "uint256",
          "name": "newPrice",
          "type": "uint256"
        }
      ],
      "name": "changePriceTier1",
      "outputs": [],
      "stateMutability": "nonpayable",
      "type": "function"
    },
    {
      "inputs": [
        {
          "internalType": "uint256",
          "name": "newPrice",
          "type": "uint256"
        }
      ],
      "name": "changePriceTier2",
      "outputs": [],
      "stateMutability": "nonpayable",
      "type": "function"
    },
    {
      "inputs": [
        {
          "internalType": "uint256",
          "name": "newPrice",
          "type": "uint256"
        }
      ],
      "name": "changePriceWhitelist",
      "outputs": [],
      "stateMutability": "nonpayable",
      "type": "function"
    },
    {
      "inputs": [
        {
          "internalType": "address[]",
          "name": "_members",
          "type": "address[]"
        }
      ],
      "name": "addAddressToWhiteListTier1",
      "outputs": [],
      "stateMutability": "nonpayable",
      "type": "function"
    },
    {
      "inputs": [
        {
          "internalType": "address[]",
          "name": "_members",
          "type": "address[]"
        }
      ],
      "name": "addAddressToWhiteListTier2",
      "outputs": [],
      "stateMutability": "nonpayable",
      "type": "function"
    },
    {
      "inputs": [
        {
          "internalType": "address",
          "name": "wallet",
          "type": "address"
        }
      ],
      "name": "walletIsInWhiteListTier1",
      "outputs": [
        {
          "internalType": "bool",
          "name": "",
          "type": "bool"
        }
      ],
      "stateMutability": "view",
      "type": "function",
      "constant": true
    },
    {
      "inputs": [
        {
          "internalType": "address",
          "name": "wallet",
          "type": "address"
        }
      ],
      "name": "walletIsInWhiteListTier2",
      "outputs": [
        {
          "internalType": "bool",
          "name": "",
          "type": "bool"
        }
      ],
      "stateMutability": "view",
      "type": "function",
      "constant": true
    },
    {
      "inputs": [],
      "name": "mintTier1",
      "outputs": [],
      "stateMutability": "payable",
      "type": "function",
      "payable": true
    },
    {
      "inputs": [],
      "name": "mintTier2",
      "outputs": [],
      "stateMutability": "payable",
      "type": "function",
      "payable": true
    }
  ],
  "bytecode": "0x60a06040819052600060808190526200001b91600a9162000285565b506040805160208101918290526000908190526200003c91600b9162000285565b50600c805460ff1916905560016018819055612135601955601a556000601b556830ca024f987b900000601c556818650127cc3dc80000601d553480156200008357600080fd5b506040516200432338038062004323833981016040819052620000a691620003e2565b83838181620000bc6301ffc9a760e01b620001bf565b8151620000d190600690602085019062000285565b508051620000e790600790602084019062000285565b50620000fa6380ac58cd60e01b620001bf565b6200010c635b5e139f60e01b620001bf565b6200011e63780e9d6360e01b620001bf565b505050506000620001346200024360201b60201c565b601080546001600160a01b0319166001600160a01b038316908117909155604051919250906000907f8be0079c531659141344cd1fd0a4f28419497f9722a3daafe3b4186f6b6457e0908290a3506127106014556105dc6015556121346016556200019f8262000247565b620001aa8262000260565b620001b58162000275565b50505050620004ee565b6001600160e01b031980821614156200021e5760405162461bcd60e51b815260206004820152601c60248201527f4552433136353a20696e76616c696420696e7465726661636520696400000000604482015260640160405180910390fd5b6001600160e01b0319166000908152602081905260409020805460ff19166001179055565b3390565b80516200025c90600990602084019062000285565b5050565b80516200025c90600a90602084019062000285565b80516200025c90600b9060208401905b82805462000293906200049b565b90600052602060002090601f016020900481019282620002b7576000855562000302565b82601f10620002d257805160ff191683800117855562000302565b8280016001018555821562000302579182015b8281111562000302578251825591602001919060010190620002e5565b506200031092915062000314565b5090565b5b8082111562000310576000815560010162000315565b600082601f8301126200033d57600080fd5b81516001600160401b03808211156200035a576200035a620004d8565b604051601f8301601f19908116603f01168101908282118183101715620003855762000385620004d8565b81604052838152602092508683858801011115620003a257600080fd5b600091505b83821015620003c65785820183015181830184015290820190620003a7565b83821115620003d85760008385830101525b9695505050505050565b60008060008060808587031215620003f957600080fd5b84516001600160401b03808211156200041157600080fd5b6200041f888389016200032b565b955060208701519150808211156200043657600080fd5b62000444888389016200032b565b945060408701519150808211156200045b57600080fd5b62000469888389016200032b565b935060608701519150808211156200048057600080fd5b506200048f878288016200032b565b91505092959194509250565b600181811c90821680620004b057607f821691505b60208210811415620004d257634e487b7160e01b600052602260045260246000fd5b50919050565b634e487b7160e01b600052604160045260246000fd5b613e2580620004fe6000396000f3fe6080604052600436106102f25760003560e01c8063715018a61161018d578063b0833073116100e0578063c39cbef11161008f578063def566091161006c578063def566091461086b578063e985e9c51461088b578063f2fde38b146108d4578063f7360b71146108f457005b8063c39cbef114610816578063c87b56dd14610836578063cb06ee381461085657005b8063b88d4fde116100bd578063b88d4fde146107c1578063c0bc99e0146107e1578063c30f4a5a146107f657005b8063b08330731461075e578063b69cd58f14610773578063b74b6b62146107ac57005b80639416b4231161013c5780639d6ee887116101195780639d6ee887146107165780639ffdb65a1461071e578063a22cb4651461073e57005b80639416b423146106c157806395d89b41146106e1578063993a14fd146106f657005b806380718b5d1161016a57806380718b5d14610679578063859dbd321461068e5780638da5cb5b146106a357005b8063715018a6146106245780637a0ca34d146106395780637da321a11461065957005b80632f568d01116102455780634f6ccce7116101f45780636c0360eb116101d15780636c0360eb146105cf5780636d522418146105e457806370a082311461060457005b80634f6ccce71461056f5780636352211e1461058f57806368794d3d146105af57005b80633ccfd60b116102225780633ccfd60b1461051a57806342842e0e1461052f5780634d4265281461054f57005b80632f568d01146104d25780632f745c59146104da57806336033deb146104fa57005b806315b56d10116102a157806325fb92151161027e57806325fb9215146104645780632a3f300c146104795780632cc1782a1461049957005b806315b56d101461040f57806318160ddd1461042f57806323b872dd1461044457005b8063095ea7b3116102cf578063095ea7b3146103bc5780630da51cd7146103dc57806312065fe0146103fb57005b806301ffc9a7146102fb57806306fdde0314610362578063081812fc1461038457005b366102f957005b005b34801561030757600080fd5b5061034d610316366004613953565b7fffffffff000000000000000000000000000000000000000000000000000000001660009081526020819052604090205460ff1690565b60405190151581526020015b60405180910390f35b34801561036e57600080fd5b50610377610909565b6040516103599190613b98565b34801561039057600080fd5b506103a461039f3660046139c2565b61099b565b6040516001600160a01b039091168152602001610359565b3480156103c857600080fd5b506102f96103d7366004613841565b610a39565b3480156103e857600080fd5b50601b545b604051908152602001610359565b34801561040757600080fd5b5030316103ed565b34801561041b57600080fd5b5061034d61042a36600461398d565b610b6b565b34801561043b57600080fd5b506103ed610b9e565b34801561045057600080fd5b506102f961045f36600461375f565b610baf565b34801561047057600080fd5b50601c546103ed565b34801561048557600080fd5b506102f961049436600461391f565b610c36565b3480156104a557600080fd5b5061034d6104b4366004613711565b6001600160a01b03166000908152601e602052604090205460ff1690565b6102f9610ca4565b3480156104e657600080fd5b506103ed6104f5366004613841565b610f0b565b34801561050657600080fd5b506103776105153660046139c2565b610f36565b34801561052657600080fd5b506102f9610fd0565b34801561053b57600080fd5b506102f961054a36600461375f565b611079565b34801561055b57600080fd5b506102f961056a3660046139db565b611094565b34801561057b57600080fd5b506103ed61058a3660046139c2565b611156565b34801561059b57600080fd5b506103a46105aa3660046139c2565b61116c565b3480156105bb57600080fd5b506102f96105ca3660046139c2565b611194565b3480156105db57600080fd5b506103776111f3565b3480156105f057600080fd5b506103776105ff3660046139c2565b611202565b34801561061057600080fd5b506103ed61061f366004613711565b6112a4565b34801561063057600080fd5b506102f9611343565b34801561064557600080fd5b506102f961065436600461386b565b6113f4565b34801561066557600080fd5b506102f96106743660046139c2565b6114b6565b34801561068557600080fd5b506103ed611515565b34801561069a57600080fd5b506015546103ed565b3480156106af57600080fd5b506010546001600160a01b03166103a4565b3480156106cd57600080fd5b506103776106dc36600461398d565b611520565b3480156106ed57600080fd5b506103776116ab565b34801561070257600080fd5b506102f96107113660046139c2565b6116ba565b6102f9611719565b34801561072a57600080fd5b5061034d61073936600461398d565b611974565b34801561074a57600080fd5b506102f9610759366004613817565b611c2b565b34801561076a57600080fd5b506103ed611cf0565b34801561077f57600080fd5b5061034d61078e366004613711565b6001600160a01b03166000908152601f602052604090205460ff1690565b3480156107b857600080fd5b50601d546103ed565b3480156107cd57600080fd5b506102f96107dc36600461379b565b611d08565b3480156107ed57600080fd5b506103ed611d96565b34801561080257600080fd5b506102f961081136600461398d565b611da8565b34801561082257600080fd5b506102f96108313660046139db565b611e0b565b34801561084257600080fd5b506103776108513660046139c2565b612161565b34801561086257600080fd5b506103ed6122f7565b34801561087757600080fd5b506102f961088636600461386b565b612302565b34801561089757600080fd5b5061034d6108a636600461372c565b6001600160a01b03918216600090815260056020908152604080832093909416825291909152205460ff1690565b3480156108e057600080fd5b506102f96108ef366004613711565b6123c4565b34801561090057600080fd5b506016546103ed565b60606006805461091890613c70565b80601f016020809104026020016040519081016040528092919081815260200182805461094490613c70565b80156109915780601f1061096657610100808354040283529160200191610991565b820191906000526020600020905b81548152906001019060200180831161097457829003601f168201915b5050505050905090565b60006109a682612503565b610a1d5760405162461bcd60e51b815260206004820152602c60248201527f4552433732313a20617070726f76656420717565727920666f72206e6f6e657860448201527f697374656e7420746f6b656e000000000000000000000000000000000000000060648201526084015b60405180910390fd5b506000908152600460205260409020546001600160a01b031690565b6000610a448261116c565b9050806001600160a01b0316836001600160a01b03161415610ace5760405162461bcd60e51b815260206004820152602160248201527f4552433732313a20617070726f76616c20746f2063757272656e74206f776e6560448201527f72000000000000000000000000000000000000000000000000000000000000006064820152608401610a14565b336001600160a01b0382161480610aea5750610aea81336108a6565b610b5c5760405162461bcd60e51b815260206004820152603860248201527f4552433732313a20617070726f76652063616c6c6572206973206e6f74206f7760448201527f6e6572206e6f7220617070726f76656420666f7220616c6c00000000000000006064820152608401610a14565b610b668383612510565b505050565b6000600f610b7883611520565b604051610b859190613ae7565b9081526040519081900360200190205460ff1692915050565b6000610baa600261258b565b905090565b610bb93382612595565b610c2b5760405162461bcd60e51b815260206004820152603160248201527f4552433732313a207472616e736665722063616c6c6572206973206e6f74206f60448201527f776e6572206e6f7220617070726f7665640000000000000000000000000000006064820152608401610a14565b610b66838383612690565b6010546001600160a01b03163314610c905760405162461bcd60e51b815260206004820181905260248201527f4f776e61626c653a2063616c6c6572206973206e6f7420746865206f776e65726044820152606401610a14565b600c805460ff191682151517905550565b50565b6000610cae61283e565b9050610cb8610b9e565b6127101415610d095760405162461bcd60e51b815260206004820152601660248201527f4e465420617265206f7665722120536f727279203a28000000000000000000006044820152606401610a14565b6005610d14336112a4565b610d1f906001613bdc565b1115610d6d5760405162461bcd60e51b815260206004820152601060248201527f4d6f7265207468616e2035204e465473000000000000000000000000000000006044820152606401610a14565b336000908152601e602052604090205460ff1615610e515761213581101580610d9857506127108111155b610de45760405162461bcd60e51b815260206004820152601b60248201527f546f6b656e206964206973206e6f742061205469657231204e465400000000006044820152606401610a14565b34601b5414610e355760405162461bcd60e51b815260206004820152601360248201527f56616c75652069736e277420636f7272656374000000000000000000000000006044820152606401610a14565b336000908152601e60205260409020805460ff19169055610f01565b61213581101580610e6457506127108111155b610eb05760405162461bcd60e51b815260206004820152601b60248201527f546f6b656e206964206973206e6f742061205469657231204e465400000000006044820152606401610a14565b34601c5414610f015760405162461bcd60e51b815260206004820152601360248201527f56616c75652069736e277420636f7272656374000000000000000000000000006044820152606401610a14565b610ca133826129d6565b6001600160a01b0382166000908152600160205260408120610f2d9083612aee565b90505b92915050565b600d6020526000908152604090208054610f4f90613c70565b80601f0160208091040260200160405190810160405280929190818152602001828054610f7b90613c70565b8015610fc85780601f10610f9d57610100808354040283529160200191610fc8565b820191906000526020600020905b815481529060010190602001808311610fab57829003601f168201915b505050505081565b6010546001600160a01b0316331461102a5760405162461bcd60e51b815260206004820181905260248201527f4f776e61626c653a2063616c6c6572206973206e6f7420746865206f776e65726044820152606401610a14565b3061103d6010546001600160a01b031690565b6040516001600160a01b039182169183163180156108fc02916000818181858888f19350505050158015611075573d6000803e3d6000fd5b5050565b610b6683838360405180602001604052806000815250611d08565b600061109f8361116c565b9050336001600160a01b038216146110f95760405162461bcd60e51b815260206004820152601f60248201527f4552433732313a2063616c6c6572206973206e6f7420746865206f776e6572006044820152606401610a14565b6000838152600d602090815260409091208351611118928501906135d4565b50827fbe3e2fc72ea4bd0d860e908b1ee27aa9856809e62a75bfc0cb7f04b5d791873d836040516111499190613b98565b60405180910390a2505050565b600080611164600284612afa565b509392505050565b6000610f3082604051806060016040528060298152602001613dc76029913960029190612b16565b6010546001600160a01b031633146111ee5760405162461bcd60e51b815260206004820181905260248201527f4f776e61626c653a2063616c6c6572206973206e6f7420746865206f776e65726044820152606401610a14565b601d55565b60606009805461091890613c70565b6000818152600e6020526040902080546060919061121f90613c70565b80601f016020809104026020016040519081016040528092919081815260200182805461124b90613c70565b80156112985780601f1061126d57610100808354040283529160200191611298565b820191906000526020600020905b81548152906001019060200180831161127b57829003601f168201915b50505050509050919050565b60006001600160a01b0382166113225760405162461bcd60e51b815260206004820152602a60248201527f4552433732313a2062616c616e636520717565727920666f7220746865207a6560448201527f726f2061646472657373000000000000000000000000000000000000000000006064820152608401610a14565b6001600160a01b0382166000908152600160205260409020610f309061258b565b6010546001600160a01b0316331461139d5760405162461bcd60e51b815260206004820181905260248201527f4f776e61626c653a2063616c6c6572206973206e6f7420746865206f776e65726044820152606401610a14565b6010546040516000916001600160a01b0316907f8be0079c531659141344cd1fd0a4f28419497f9722a3daafe3b4186f6b6457e0908390a36010805473ffffffffffffffffffffffffffffffffffffffff19169055565b6010546001600160a01b0316331461144e5760405162461bcd60e51b815260206004820181905260248201527f4f776e61626c653a2063616c6c6572206973206e6f7420746865206f776e65726044820152606401610a14565b60005b8151811015611075576001601f600084848151811061147257611472613d3a565b6020908102919091018101516001600160a01b03168252810191909152604001600020805460ff1916911515919091179055806114ae81613cab565b915050611451565b6010546001600160a01b031633146115105760405162461bcd60e51b815260206004820181905260248201527f4f776e61626c653a2063616c6c6572206973206e6f7420746865206f776e65726044820152606401610a14565b601c55565b6000610baa60135490565b606060008290506000815167ffffffffffffffff81111561154357611543613d50565b6040519080825280601f01601f19166020018201604052801561156d576020820181803683370190505b50905060005b825181101561116457604183828151811061159057611590613d3a565b016020015160f81c108015906115c05750605a8382815181106115b5576115b5613d3a565b016020015160f81c11155b1561163a578281815181106115d7576115d7613d3a565b602001015160f81c60f81b60f81c60206115f19190613bf4565b60f81b82828151811061160657611606613d3a565b60200101907effffffffffffffffffffffffffffffffffffffffffffffffffffffffffffff1916908160001a905350611699565b82818151811061164c5761164c613d3a565b602001015160f81c60f81b82828151811061166957611669613d3a565b60200101907effffffffffffffffffffffffffffffffffffffffffffffffffffffffffffff1916908160001a9053505b806116a381613cab565b915050611573565b60606007805461091890613c70565b6010546001600160a01b031633146117145760405162461bcd60e51b815260206004820181905260248201527f4f776e61626c653a2063616c6c6572206973206e6f7420746865206f776e65726044820152606401610a14565b601b55565b6000611723612b2d565b905061172d610b9e565b612710141561177e5760405162461bcd60e51b815260206004820152601660248201527f4e465420617265206f7665722120536f727279203a28000000000000000000006044820152606401610a14565b6005611789336112a4565b611794906001613bdc565b11156117e25760405162461bcd60e51b815260206004820152601060248201527f4d6f7265207468616e2035204e465473000000000000000000000000000000006044820152606401610a14565b336000908152601f602052604090205460ff16156118c55760018110158061180c57506121348111155b6118585760405162461bcd60e51b815260206004820152601b60248201527f546f6b656e206964206973206e6f742061205469657231204e465400000000006044820152606401610a14565b34601b54146118a95760405162461bcd60e51b815260206004820152601360248201527f56616c75652069736e277420636f7272656374000000000000000000000000006044820152606401610a14565b336000908152601f60205260409020805460ff19169055610f01565b6001811015806118d757506121348111155b6119235760405162461bcd60e51b815260206004820152601b60248201527f546f6b656e206964206973206e6f742061205469657231204e465400000000006044820152606401610a14565b34601d5414610f015760405162461bcd60e51b815260206004820152601360248201527f56616c75652069736e277420636f7272656374000000000000000000000000006044820152606401610a14565b60008082905060018151101561198d5750600092915050565b6019815111156119a05750600092915050565b806000815181106119b3576119b3613d3a565b6020910101516001600160f81b031916600160fd1b14156119d75750600092915050565b80600182516119e69190613c2d565b815181106119f6576119f6613d3a565b6020910101516001600160f81b031916600160fd1b1415611a1a5750600092915050565b600081600081518110611a2f57611a2f613d3a565b01602001516001600160f81b031916905060005b8251811015611c20576000838281518110611a6057611a60613d3a565b01602001516001600160f81b0319169050600160fd1b81148015611a915750600160fd1b6001600160f81b03198416145b15611aa25750600095945050505050565b7f30000000000000000000000000000000000000000000000000000000000000006001600160f81b0319821610801590611b0657507f39000000000000000000000000000000000000000000000000000000000000006001600160f81b0319821611155b158015611b7457507f41000000000000000000000000000000000000000000000000000000000000006001600160f81b0319821610801590611b7257507f5a000000000000000000000000000000000000000000000000000000000000006001600160f81b0319821611155b155b8015611be157507f61000000000000000000000000000000000000000000000000000000000000006001600160f81b0319821610801590611bdf57507f7a000000000000000000000000000000000000000000000000000000000000006001600160f81b0319821611155b155b8015611bfb5750600160fd1b6001600160f81b0319821614155b15611c0c5750600095945050505050565b915080611c1881613cab565b915050611a43565b506001949350505050565b6001600160a01b038216331415611c845760405162461bcd60e51b815260206004820152601960248201527f4552433732313a20617070726f766520746f2063616c6c6572000000000000006044820152606401610a14565b3360008181526005602090815260408083206001600160a01b03871680855290835292819020805460ff191686151590811790915590519081529192917f17307eab39ab6107e8899845ad3d59bd9653f200f220920489ca2b5937696c31910160405180910390a35050565b6000611cfa6122f7565b6015545b610baa9190613c2d565b611d123383612595565b611d845760405162461bcd60e51b815260206004820152603160248201527f4552433732313a207472616e736665722063616c6c6572206973206e6f74206f60448201527f776e6572206e6f7220617070726f7665640000000000000000000000000000006064820152608401610a14565b611d9084848484612cbd565b50505050565b6000611da0611515565b601654611cfe565b6010546001600160a01b03163314611e025760405162461bcd60e51b815260206004820181905260248201527f4f776e61626c653a2063616c6c6572206973206e6f7420746865206f776e65726044820152606401610a14565b610ca181612d46565b6000611e168361116c565b9050336001600160a01b03821614611e705760405162461bcd60e51b815260206004820152601f60248201527f4552433732313a2063616c6c6572206973206e6f7420746865206f776e6572006044820152606401610a14565b611e7982611974565b1515600114611eca5760405162461bcd60e51b815260206004820152601460248201527f4e6f7420612076616c6964206e6577206e616d650000000000000000000000006044820152606401610a14565b6000838152600e6020526040908190209051600291611ee891613b03565b602060405180830381855afa158015611f05573d6000803e3d6000fd5b5050506040513d601f19601f82011682018060405250810190611f28919061393a565b600283604051611f389190613ae7565b602060405180830381855afa158015611f55573d6000803e3d6000fd5b5050506040513d601f19601f82011682018060405250810190611f78919061393a565b1415611fec5760405162461bcd60e51b815260206004820152602360248201527f4e6577206e616d652069732073616d65206173207468652063757272656e742060448201527f6f6e6500000000000000000000000000000000000000000000000000000000006064820152608401610a14565b611ff582610b6b565b156120425760405162461bcd60e51b815260206004820152601560248201527f4e616d6520616c726561647920726573657276656400000000000000000000006044820152606401610a14565b6000838152600e60205260408120805461205b90613c70565b90501115612106576000838152600e602052604090208054612106919061208190613c70565b80601f01602080910402602001604051908101604052809291908181526020018280546120ad90613c70565b80156120fa5780601f106120cf576101008083540402835291602001916120fa565b820191906000526020600020905b8154815290600101906020018083116120dd57829003601f168201915b50505050506000612d59565b612111826001612d59565b6000838152600e602090815260409091208351612130928501906135d4565b50827f7e632a301794d8d4a81ea7e20f37d1947158d36e66403af04ba85dd194b66f1b836040516111499190613b98565b606061216c82612503565b6121de5760405162461bcd60e51b815260206004820152602f60248201527f4552433732314d657461646174613a2055524920717565727920666f72206e6f60448201527f6e6578697374656e7420746f6b656e00000000000000000000000000000000006064820152608401610a14565b600c5460ff166121f557600b805461121f90613c70565b6000828152600860205260408120805461220e90613c70565b80601f016020809104026020016040519081016040528092919081815260200182805461223a90613c70565b80156122875780601f1061225c57610100808354040283529160200191612287565b820191906000526020600020905b81548152906001019060200180831161226a57829003601f168201915b505050505090506009805461229b90613c70565b151590506122a95792915050565b8051156122db576009816040516020016122c4929190613b0f565b604051602081830303815290604052915050919050565b60096122e684612d96565b6040516020016122c4929190613b0f565b6000610baa60125490565b6010546001600160a01b0316331461235c5760405162461bcd60e51b815260206004820181905260248201527f4f776e61626c653a2063616c6c6572206973206e6f7420746865206f776e65726044820152606401610a14565b60005b8151811015611075576001601e600084848151811061238057612380613d3a565b6020908102919091018101516001600160a01b03168252810191909152604001600020805460ff1916911515919091179055806123bc81613cab565b91505061235f565b6010546001600160a01b0316331461241e5760405162461bcd60e51b815260206004820181905260248201527f4f776e61626c653a2063616c6c6572206973206e6f7420746865206f776e65726044820152606401610a14565b6001600160a01b03811661249a5760405162461bcd60e51b815260206004820152602660248201527f4f776e61626c653a206e6577206f776e657220697320746865207a65726f206160448201527f64647265737300000000000000000000000000000000000000000000000000006064820152608401610a14565b6010546040516001600160a01b038084169216907f8be0079c531659141344cd1fd0a4f28419497f9722a3daafe3b4186f6b6457e090600090a36010805473ffffffffffffffffffffffffffffffffffffffff19166001600160a01b0392909216919091179055565b6000610f30600283612ec8565b6000818152600460205260409020805473ffffffffffffffffffffffffffffffffffffffff19166001600160a01b03841690811790915581906125528261116c565b6001600160a01b03167f8c5be1e5ebec7d5bd14f71427d1e84f3dd0314c0f7b2291e5b200ac8c7c3b92560405160405180910390a45050565b6000610f30825490565b60006125a082612503565b6126125760405162461bcd60e51b815260206004820152602c60248201527f4552433732313a206f70657261746f7220717565727920666f72206e6f6e657860448201527f697374656e7420746f6b656e00000000000000000000000000000000000000006064820152608401610a14565b600061261d8361116c565b9050806001600160a01b0316846001600160a01b031614806126585750836001600160a01b031661264d8461099b565b6001600160a01b0316145b8061268857506001600160a01b0380821660009081526005602090815260408083209388168352929052205460ff165b949350505050565b826001600160a01b03166126a38261116c565b6001600160a01b03161461271f5760405162461bcd60e51b815260206004820152602960248201527f4552433732313a207472616e73666572206f6620746f6b656e2074686174206960448201527f73206e6f74206f776e00000000000000000000000000000000000000000000006064820152608401610a14565b6001600160a01b03821661279a5760405162461bcd60e51b8152602060048201526024808201527f4552433732313a207472616e7366657220746f20746865207a65726f2061646460448201527f72657373000000000000000000000000000000000000000000000000000000006064820152608401610a14565b6127a5600082612510565b6001600160a01b03831660009081526001602052604090206127c79082612ee0565b506001600160a01b03821660009081526001602052604090206127ea9082612eec565b506127f760028284612ef8565b5080826001600160a01b0316846001600160a01b03167fddf252ad1be2c89b69c2b068fc378daa952ba7f163c4a11628f55a4df523b3ef60405160405180910390a4505050565b600080612849611cf0565b116128965760405162461bcd60e51b815260206004820152601860248201527f4e6f206d6f726520746f6b656e7320617661696c61626c6500000000000000006044820152606401610a14565b60006128a06122f7565b6015546128ad9190613c2d565b6040516bffffffffffffffffffffffff1933606090811b8216602084015241901b166034820152446048820152456068820152426088820152909150600090829060a8016040516020818303038152906040528051906020012060001c6129149190613ce4565b60008181526017602052604081205491925090612932575080612943565b506000818152601760205260409020545b60176000612952600186613c2d565b8152602001908152602001600020546000141561298857612974600184613c2d565b6000838152601760205260409020556129b8565b60176000612997600186613c2d565b81526020808201929092526040908101600090812054858252601790935220555b6129c0612f0e565b506019546129ce9082613bdc565b935050505090565b6001600160a01b038216612a2c5760405162461bcd60e51b815260206004820181905260248201527f4552433732313a206d696e7420746f20746865207a65726f20616464726573736044820152606401610a14565b612a3581612503565b15612a825760405162461bcd60e51b815260206004820152601c60248201527f4552433732313a20746f6b656e20616c7265616479206d696e746564000000006044820152606401610a14565b6001600160a01b0382166000908152600160205260409020612aa49082612eec565b50612ab160028284612ef8565b5060405181906001600160a01b038416906000907fddf252ad1be2c89b69c2b068fc378daa952ba7f163c4a11628f55a4df523b3ef908290a45050565b6000610f2d8383612f81565b6000808080612b098686613022565b9097909650945050505050565b6000612b238484846130da565b90505b9392505050565b600080612b38611d96565b11612b855760405162461bcd60e51b815260206004820152601860248201527f4e6f206d6f726520746f6b656e7320617661696c61626c6500000000000000006044820152606401610a14565b6000612b8f611515565b601654612b9c9190613c2d565b6040516bffffffffffffffffffffffff1933606090811b8216602084015241901b166034820152446048820152456068820152426088820152909150600090829060a8016040516020818303038152906040528051906020012060001c612c039190613ce4565b60008181526017602052604081205491925090612c21575080612c32565b506000818152601760205260409020545b60176000612c41600186613c2d565b81526020019081526020016000205460001415612c7757612c63600184613c2d565b600083815260176020526040902055612ca7565b60176000612c86600186613c2d565b81526020808201929092526040908101600090812054858252601790935220555b612caf613143565b50601a546129ce9082613bdc565b612cc8848484612690565b612cd4848484846131b6565b611d905760405162461bcd60e51b815260206004820152603260248201527f4552433732313a207472616e7366657220746f206e6f6e20455243373231526560448201527f63656976657220696d706c656d656e74657200000000000000000000000000006064820152608401610a14565b80516110759060099060208401906135d4565b80600f612d6584611520565b604051612d729190613ae7565b908152604051908190036020019020805491151560ff199092169190911790555050565b606081612dd657505060408051808201909152600181527f3000000000000000000000000000000000000000000000000000000000000000602082015290565b8160005b8115612e005780612dea81613cab565b9150612df99050600a83613c19565b9150612dda565b60008167ffffffffffffffff811115612e1b57612e1b613d50565b6040519080825280601f01601f191660200182016040528015612e45576020820181803683370190505b5090505b841561268857612e5a600183613c2d565b9150612e67600a86613ce4565b612e72906030613bdc565b60f81b818381518110612e8757612e87613d3a565b60200101907effffffffffffffffffffffffffffffffffffffffffffffffffffffffffffff1916908160001a905350612ec1600a86613c19565b9450612e49565b60008181526001830160205260408120541515610f2d565b6000610f2d83836132fb565b6000610f2d83836133ee565b6000612b2384846001600160a01b03851661343d565b600080612f19611cf0565b11612f665760405162461bcd60e51b815260206004820152601860248201527f4e6f206d6f726520746f6b656e7320617661696c61626c6500000000000000006044820152606401610a14565b6000612f7160125490565b9050610baa601280546001019055565b81546000908210612ffa5760405162461bcd60e51b815260206004820152602260248201527f456e756d657261626c655365743a20696e646578206f7574206f6620626f756e60448201527f64730000000000000000000000000000000000000000000000000000000000006064820152608401610a14565b82600001828154811061300f5761300f613d3a565b9060005260206000200154905092915050565b81546000908190831061309d5760405162461bcd60e51b815260206004820152602260248201527f456e756d657261626c654d61703a20696e646578206f7574206f6620626f756e60448201527f64730000000000000000000000000000000000000000000000000000000000006064820152608401610a14565b60008460000184815481106130b4576130b4613d3a565b906000526020600020906002020190508060000154816001015492509250509250929050565b6000828152600184016020526040812054828161310a5760405162461bcd60e51b8152600401610a149190613b98565b5084613117600183613c2d565b8154811061312757613127613d3a565b9060005260206000209060020201600101549150509392505050565b60008061314e611d96565b1161319b5760405162461bcd60e51b815260206004820152601860248201527f4e6f206d6f726520746f6b656e7320617661696c61626c6500000000000000006044820152606401610a14565b60006131a660135490565b9050610baa601380546001019055565b60006001600160a01b0384163b6131cf57506001612688565b60006132937f150b7a02000000000000000000000000000000000000000000000000000000003388878760405160240161320c9493929190613b5c565b604051602081830303815290604052907bffffffffffffffffffffffffffffffffffffffffffffffffffffffff19166020820180517bffffffffffffffffffffffffffffffffffffffffffffffffffffffff8381831617835250505050604051806060016040528060328152602001613d95603291396001600160a01b03881691906134de565b90506000818060200190518101906132ab9190613970565b7fffffffff00000000000000000000000000000000000000000000000000000000167f150b7a02000000000000000000000000000000000000000000000000000000001492505050949350505050565b600081815260018301602052604081205480156133e457600061331f600183613c2d565b855490915060009061333390600190613c2d565b9050600086600001828154811061334c5761334c613d3a565b906000526020600020015490508087600001848154811061336f5761336f613d3a565b600091825260209091200155613386836001613bdc565b600082815260018901602052604090205586548790806133a8576133a8613d24565b60019003818190600052602060002001600090559055866001016000878152602001908152602001600020600090556001945050505050610f30565b6000915050610f30565b600081815260018301602052604081205461343557508154600181810184556000848152602080822090930184905584548482528286019093526040902091909155610f30565b506000610f30565b6000828152600184016020526040812054806134a2575050604080518082018252838152602080820184815286546001818101895560008981528481209551600290930290950191825591519082015586548684528188019092529290912055612b26565b82856134af600184613c2d565b815481106134bf576134bf613d3a565b9060005260206000209060020201600101819055506000915050612b26565b6060612b2384846000856060843b6135385760405162461bcd60e51b815260206004820152601d60248201527f416464726573733a2063616c6c20746f206e6f6e2d636f6e74726163740000006044820152606401610a14565b600080866001600160a01b031685876040516135549190613ae7565b60006040518083038185875af1925050503d8060008114613591576040519150601f19603f3d011682016040523d82523d6000602084013e613596565b606091505b509150915081156135aa5791506126889050565b8051156135ba5780518082602001fd5b8360405162461bcd60e51b8152600401610a149190613b98565b8280546135e090613c70565b90600052602060002090601f0160209004810192826136025760008555613648565b82601f1061361b57805160ff1916838001178555613648565b82800160010185558215613648579182015b8281111561364857825182559160200191906001019061362d565b50613654929150613658565b5090565b5b808211156136545760008155600101613659565b600067ffffffffffffffff83111561368757613687613d50565b61369a6020601f19601f86011601613bab565b90508281528383830111156136ae57600080fd5b828260208301376000602084830101529392505050565b80356001600160a01b03811681146136dc57600080fd5b919050565b803580151581146136dc57600080fd5b600082601f83011261370257600080fd5b610f2d8383356020850161366d565b60006020828403121561372357600080fd5b610f2d826136c5565b6000806040838503121561373f57600080fd5b613748836136c5565b9150613756602084016136c5565b90509250929050565b60008060006060848603121561377457600080fd5b61377d846136c5565b925061378b602085016136c5565b9150604084013590509250925092565b600080600080608085870312156137b157600080fd5b6137ba856136c5565b93506137c8602086016136c5565b925060408501359150606085013567ffffffffffffffff8111156137eb57600080fd5b8501601f810187136137fc57600080fd5b61380b8782356020840161366d565b91505092959194509250565b6000806040838503121561382a57600080fd5b613833836136c5565b9150613756602084016136e1565b6000806040838503121561385457600080fd5b61385d836136c5565b946020939093013593505050565b6000602080838503121561387e57600080fd5b823567ffffffffffffffff8082111561389657600080fd5b818501915085601f8301126138aa57600080fd5b8135818111156138bc576138bc613d50565b8060051b91506138cd848301613bab565b8181528481019084860184860187018a10156138e857600080fd5b600095505b83861015613912576138fe816136c5565b8352600195909501949186019186016138ed565b5098975050505050505050565b60006020828403121561393157600080fd5b610f2d826136e1565b60006020828403121561394c57600080fd5b5051919050565b60006020828403121561396557600080fd5b8135612b2681613d66565b60006020828403121561398257600080fd5b8151612b2681613d66565b60006020828403121561399f57600080fd5b813567ffffffffffffffff8111156139b657600080fd5b612688848285016136f1565b6000602082840312156139d457600080fd5b5035919050565b600080604083850312156139ee57600080fd5b82359150602083013567ffffffffffffffff811115613a0c57600080fd5b613a18858286016136f1565b9150509250929050565b60008151808452613a3a816020860160208601613c44565b601f01601f19169290920160200192915050565b8054600090600181811c9080831680613a6857607f831692505b6020808410821415613a8a57634e487b7160e01b600052602260045260246000fd5b818015613a9e5760018114613aaf57613adb565b60ff19861689528489019650613adb565b876000528160002060005b86811015613ad35781548b820152908501908301613aba565b505084890196505b50505050505092915050565b60008251613af9818460208701613c44565b9190910192915050565b6000610f2d8284613a4e565b6000613b1b8285613a4e565b8351613b2b818360208801613c44565b7f2e6a736f6e0000000000000000000000000000000000000000000000000000009101908152600501949350505050565b60006001600160a01b03808716835280861660208401525083604083015260806060830152613b8e6080830184613a22565b9695505050505050565b602081526000610f2d6020830184613a22565b604051601f8201601f1916810167ffffffffffffffff81118282101715613bd457613bd4613d50565b604052919050565b60008219821115613bef57613bef613cf8565b500190565b600060ff821660ff84168060ff03821115613c1157613c11613cf8565b019392505050565b600082613c2857613c28613d0e565b500490565b600082821015613c3f57613c3f613cf8565b500390565b60005b83811015613c5f578181015183820152602001613c47565b83811115611d905750506000910152565b600181811c90821680613c8457607f821691505b60208210811415613ca557634e487b7160e01b600052602260045260246000fd5b50919050565b60007fffffffffffffffffffffffffffffffffffffffffffffffffffffffffffffffff821415613cdd57613cdd613cf8565b5060010190565b600082613cf357613cf3613d0e565b500690565b634e487b7160e01b600052601160045260246000fd5b634e487b7160e01b600052601260045260246000fd5b634e487b7160e01b600052603160045260246000fd5b634e487b7160e01b600052603260045260246000fd5b634e487b7160e01b600052604160045260246000fd5b7fffffffff0000000000000000000000000000000000000000000000000000000081168114610ca157600080fdfe4552433732313a207472616e7366657220746f206e6f6e20455243373231526563656976657220696d706c656d656e7465724552433732313a206f776e657220717565727920666f72206e6f6e6578697374656e7420746f6b656ea264697066735822122092ababd91550f5e155b1d754bf089cef86e92148a1bacc373636d974c9bb680264736f6c63430008060033",
  "immutableReferences": {},
  "source": "// SPDX-License-Identifier: MIT\npragma experimental ABIEncoderV2;\npragma solidity >=0.8.6;\n\nimport \"./ERC721Namable.sol\";\nimport \"./libraries/SafeMath.sol\";\nimport \"./interfaces/IERC1155.sol\";\nimport \"./Ownable.sol\";\nimport \"./libraries/Strings.sol\";\nimport \"./RandomlyAssigned.sol\";\n\ncontract MetaBadge is ERC721Namable, Ownable, RandomlyAssigned {\n    using SafeMath for uint256;\n    using Strings for uint256;\n\n\n    uint256 private PRICEWHITELIST = 0 ether;\n    uint256 private PRICETIER1 = 900 ether;\n    uint256 private PRICETIER2 = 450 ether;\n\n\n    uint256 constant MAX_NFT = 10000;\n\n   mapping(address => bool) whiteListTier1;\n   mapping(address => bool) whiteListTier2;\n\n    receive() external payable {}\n    fallback() external payable {}\n\n    constructor(\n        string memory _name,\n        string memory _symbol,\n        string memory _baseURI,\n        string memory _hiddenURI\n    )\n        ERC721Namable(_name, _symbol)\n    {\n        _setBaseURI(_baseURI);\n        _setTrueURI(_baseURI);\n        _setHiddenURI(_hiddenURI);\n    }\n\n\n    function setReveal(bool value) public onlyOwner virtual{\n        _setReveal(value);\n    }\n\n\n    //Withdraw tokens from contract\n    function withdraw() public onlyOwner {\n        address _this = address(this);\n        payable(owner()).transfer(_this.balance);\n    }\n\n    //Update URI for Metadata\n\tfunction updateURI(string memory _newURI) public onlyOwner {\n\t\t_setBaseURI(_newURI);\n\t}\n\n    //Return count of tokens on balance of msg.sender.\n    function getBalance() public view returns(uint256) {\n        address _self = address(this);\n        uint256 _balance = _self.balance;\n        return _balance;\n    }\n\n     //Return price of Tier1 NFT.\n    function getTier1Price() public view returns(uint256){\n        return PRICETIER1;\n    }\n\n    //Return price of Tier2 NFT.\n    function getTier2Price() public view returns(uint256){\n        return PRICETIER2;\n    }\n\n    //Return price of whitelist address.\n    function getWhitelistPrice() public view returns(uint256){\n        return PRICEWHITELIST;\n    }\n\n    //Change price of Tier 1 NFT\n    function changePriceTier1(uint256 newPrice) public onlyOwner {\n        PRICETIER1 = newPrice;\n    }\n\n    //Change price of Tier 2 NFT\n    function changePriceTier2(uint256 newPrice) public onlyOwner {\n        PRICETIER2 = newPrice;\n    }\n\n    //Change price of whitelist\n    function changePriceWhitelist(uint256 newPrice) public onlyOwner {\n        PRICEWHITELIST = newPrice;\n    }\n\n    //Add adresses to whiteListTier1\n    function addAddressToWhiteListTier1(address[] memory _members) public onlyOwner{\n            for (uint256 i = 0; i < _members.length; i++) {\n                whiteListTier1[_members[i]] = true;\n            }\n    }\n\n    //Add adresses to whiteListTier2\n    function addAddressToWhiteListTier2(address[] memory _members) public onlyOwner{\n            for (uint256 i = 0; i < _members.length; i++) {\n                whiteListTier2[_members[i]] = true;\n            }\n    }\n\n    //Check contains of wallet in WhiteListTier12\n    function walletIsInWhiteListTier1(address wallet) public view returns(bool){\n        return whiteListTier1[wallet];\n    }\n\n    //Check contains of wallet in WhiteListTier2\n    function walletIsInWhiteListTier2(address wallet) public view returns(bool){\n        return whiteListTier2[wallet];\n    }\n\n\n     function mintTier1() public payable {\n        uint256 _idTier1 = nextTokenForTier1();\n        require(MAX_NFT != totalSupply(), \"NFT are over! Sorry :(\");\n        require(balanceOf(msg.sender) + 1 <= 5, \"More than 5 NFTs\");\n\n       if( walletIsInWhiteListTier1(msg.sender)){\n           require(_idTier1 >= 8501 || _idTier1 <= 10000, \"Token id is not a Tier1 NFT\");\n           require(PRICEWHITELIST == msg.value, \"Value isn't correct\");\n           whiteListTier1[msg.sender] = false;\n        }\n        else{\n            require(_idTier1 >= 8501 || _idTier1 <= 10000, \"Token id is not a Tier1 NFT\");\n            require(PRICETIER1 == msg.value, \"Value isn't correct\");\n        }\n        _mint(msg.sender, _idTier1);\n     }\n\n      function mintTier2() public payable {\n        uint256 _idTier2 = nextTokenForTier2();\n        require(MAX_NFT != totalSupply(), \"NFT are over! Sorry :(\");\n        require(balanceOf(msg.sender) + 1 <= 5, \"More than 5 NFTs\");\n\n       if( walletIsInWhiteListTier2(msg.sender)){\n           require(_idTier2 >= 1 || _idTier2 <= 8500, \"Token id is not a Tier1 NFT\");\n           require(PRICEWHITELIST == msg.value, \"Value isn't correct\");\n           whiteListTier2[msg.sender] = false;\n        }\n        else{\n            require(_idTier2 >= 1 || _idTier2 <= 8500, \"Token id is not a Tier1 NFT\");\n            require(PRICETIER2 == msg.value, \"Value isn't correct\");\n        }\n        _mint(msg.sender, _idTier2);\n     }\n\n\n}\n",
  "sourcePath": "/home/master/Desktop/Solidity/OSIS-Metabadges/contracts/Metabadges.sol",
  "compiler": {
    "name": "solc",
    "version": "0.8.6+commit.11564f7e.Emscripten.clang"
  },
  "schemaVersion": "3.4.6",
  "updatedAt": "2022-04-12T04:12:22.295Z",
  "networkType": "ethereum",
  "devdoc": {
    "kind": "dev",
    "methods": {
      "approve(address,uint256)": {
        "details": "See {IERC721-approve}."
      },
      "availableTokenCountTier1()": {
        "details": "Check whether tokens are still available",
        "returns": {
          "_0": "the available token count"
        }
      },
      "availableTokenCountTier2()": {
        "details": "Check whether tokens are still available",
        "returns": {
          "_0": "the available token count"
        }
      },
      "balanceOf(address)": {
        "details": "See {IERC721-balanceOf}."
      },
      "baseURI()": {
        "details": "Returns the base URI set via {_setBaseURI}. This will be automatically added as a prefix in {tokenURI} to each token's URI, or to the token ID if no specific URI is set for that token ID."
      },
      "getApproved(uint256)": {
        "details": "See {IERC721-getApproved}."
      },
      "isApprovedForAll(address,address)": {
        "details": "See {IERC721-isApprovedForAll}."
      },
      "isNameReserved(string)": {
        "details": "Returns if the name has been reserved."
      },
      "name()": {
        "details": "See {IERC721Metadata-name}."
      },
      "owner()": {
        "details": "Returns the address of the current owner."
      },
      "ownerOf(uint256)": {
        "details": "See {IERC721-ownerOf}."
      },
      "renounceOwnership()": {
        "details": "Leaves the contract without owner. It will not be possible to call `onlyOwner` functions anymore. Can only be called by the current owner. NOTE: Renouncing ownership will leave the contract without an owner, thereby removing any functionality that is only available to the owner."
      },
      "safeTransferFrom(address,address,uint256)": {
        "details": "See {IERC721-safeTransferFrom}."
      },
      "safeTransferFrom(address,address,uint256,bytes)": {
        "details": "See {IERC721-safeTransferFrom}."
      },
      "setApprovalForAll(address,bool)": {
        "details": "See {IERC721-setApprovalForAll}."
      },
      "supportsInterface(bytes4)": {
        "details": "See {IERC165-supportsInterface}. Time complexity O(1), guaranteed to always use less than 30 000 gas."
      },
      "symbol()": {
        "details": "See {IERC721Metadata-symbol}."
      },
      "toLower(string)": {
        "details": "Converts the string to lowercase"
      },
      "tokenByIndex(uint256)": {
        "details": "See {IERC721Enumerable-tokenByIndex}."
      },
      "tokenCountForTier1()": {
        "details": "Get the current token count",
        "returns": {
          "_0": "the created token count"
        }
      },
      "tokenCountForTier2()": {
        "details": "Get the current token count",
        "returns": {
          "_0": "the created token count"
        }
      },
      "tokenNameByIndex(uint256)": {
        "details": "Returns name of the NFT at index."
      },
      "tokenOfOwnerByIndex(address,uint256)": {
        "details": "See {IERC721Enumerable-tokenOfOwnerByIndex}."
      },
      "tokenURI(uint256)": {
        "details": "See {IERC721Metadata-tokenURI}."
      },
      "totalSupply()": {
        "details": "See {IERC721Enumerable-totalSupply}."
      },
      "totalSupplyNftTier1()": {
        "details": "Get the max Supply",
        "returns": {
          "_0": "the maximum token count"
        }
      },
      "totalSupplyNftTier2()": {
        "details": "Get the max Supply",
        "returns": {
          "_0": "the maximum token count"
        }
      },
      "transferFrom(address,address,uint256)": {
        "details": "See {IERC721-transferFrom}."
      },
      "transferOwnership(address)": {
        "details": "Transfers ownership of the contract to a new account (`newOwner`). Can only be called by the current owner."
      }
    },
    "version": 1
  },
  "userdoc": {
    "kind": "user",
    "methods": {},
    "version": 1
  }
}